:040000000DEF00F010
:0400080078EF16F087
:06001800FF0098EF1BF051
:10200000002C33000000009A3A00923A00EA3900AE
:102010004A3800000000000000000000000000003E
:1020200000000000000000000000000000000000B0
:102030000000000000000000000000000040390027
:102040001E3900FC38000000004354524C3A253041
:10205000325820535441543A253032582052433597
:102060003A25750D0A00476174655F30312C25648F
:102070002C25642C25642C25642C25642C25640DCA
:102080000A0054696D653A20253032753A253032A0
:10209000753A253032750D0A0044533332333120FE
:0F20A00072656164206661696C65640D0A0000F9
:1020B0000001A66B000EA56FAA6B000EA96FA86B9E
:1020C000000EA76FAB6B150EA26F070EA36FA4696E
:1020D000DDEC1CF07CEC1BF03901D1833A01406B44
:1020E000506B706BC580C594C59670957097C29003
:1020F000BA90BD84BD860001E66BE56BE46BC0EC75
:102100001CF0E4EC1AF00BEC1DF03EEC1DF0050E9B
:102110000001616F0F0E606FF10EE82EFED7602F89
:10212000FCD7612FFAD7D28E50EC1DF00001E95197
:10213000A419D8B49EEF10F0A0EF10F0AFEF10F09C
:10214000E9C0A4F0820E326EE8C033F0346AE7C012
:1021500035F0366AE9C037F0386AEAEC1CF0000165
:10216000E651D8A4B6EF10F0B8EF10F0C5EF10F0BC
:10217000040EE565BEEF10F0C0EF10F0C5EF10F0F3
:10218000010EE46FE56B010EE66FE605D8A4CBEF18
:1021900010F0CDEF10F0D9EF10F0130EE565D3EF8E
:1021A00010F0D5EF10F0D9EF10F0BD94E56B020EF2
:1021B000E66F020EE619D8A4E0EF10F0E2EF10F09F
:1021C000EDEF10F03B0EE565E8EF10F0EAEF10F0F0
:1021D000EDEF10F0BD84E56BE66BE451D8B4F3EF9E
:1021E00010F0F5EF10F018EF11F0E46B620E326EA4
:1021F000660E336EA5C034F0A6C035F0D8C036F0F8
:10220000D9C037F0D6C038F0D7C039F0D4C03AF0D2
:10221000D5C03BF0D2C03CF0D3C03DF0D0C03EF0C2
:10222000D1C03FF0CDEC1BF0620E026E04EC1BF04F
:10223000F5EC1CF00009D8B420EF11F022EF11F0FA
:1022400082EF11F04DEC1DF00001AC6F73EF11F057
:102250004C0EAC19D8A42FEF11F031EF11F082EF32
:1022600011F0010EAB6F82EF11F0450EAC19D8A43E
:102270003CEF11F03EEF11F042EF11F0020EAB6FA8
:1022800082EF11F04C0EAC19D8A449EF11F04BEFCE
:1022900011F04DEF11F031EF11F0AB6B82EF11F057
:1022A000440EAC19D8A457EF11F059EF11F04DEFCF
:1022B00011F0A66B000EA56FD96B000ED86FD76B0F
:1022C000000ED66FD56B000ED46FD36B000ED26F9D
:1022D000D16B000ED06FAA6B000EA96FA86B010E18
:1022E000A76F4DEF11F0AB51000AD8B428EF11F0F1
:1022F000010AD8B435EF11F0030AD8B450EF11F049
:102300004DEF11F00001A705A811D8A48AEF11F034
:102310008CEF11F09CEF11F0BA90CDB092EF11F06C
:1023200094EF11F0B8EF11F0A86B000EA76FAA6B35
:10233000000EA96FB8EF11F0CDA0A1EF11F0A3EF3F
:1023400011F0A9EF11F0BA80AA6B010EA96FB8EFD6
:1023500011F0BA90A905AA11D8A4B1EF11F0B3EF0A
:1023600011F0B8EF11F0A54BA62BAA6B000EA96FC8
:10237000D9EC12F094EF10F00DEF00F02650D96E6A
:10238000DA6A6F007FFFF6FF200EF76E000EF86E20
:102390000800F550250AD8A4D0EF11F0D2EF11F0C3
:1023A000C4EF12F02650D96EDA6ADF2A586A000E9E
:1023B000576E57C05DF00001CE69CF69286AFEEF05
:1023C00011F05D822650D96EDA6ADF2AFEEF11F035
:1023D000010E286EFEEF11F02650D96EDA6A6F00FA
:1023E0007FFFF6FF200EF76E000EF86E0800F55026
:1023F000300AD8B4E1EF11F0E8EF11F02850D8B46A
:1024000004EF12F006EF12F0ECEF11F026C001F02D
:1024100027C002F039EC17F001C057F002C058F0A5
:1024200058BE17EF12F015EF12F01CEF12F05D809E
:10243000576C581ED8B0582A2650D96EDA6ADF5029
:102440002D6E6000B7F0F6FF200EF76E000EF86EEE
:102450000800F550640AD8B430EF12F032EF12F0F1
:1024600043EF12F06000B7F0F6FF200EF76E000E9B
:10247000F86E0800F550690AD8A441EF12F043EF56
:1024800012F060EF12F02750D96EDA6A020EDF26E2
:10249000DF5CD96EDA6A6F0078FF29F06F0078FF91
:1024A0002AF02650D96EDA6A2D28DF6E25C019F081
:1024B00029C01AF02AC01BF0D3EC14F0D8EF12F0A8
:1024C0006000B7F0F6FF200EF76E000EF86E080001
:1024D000F550580AD8B46FEF12F071EF12F082EF96
:1024E00012F06000B7F0F6FF200EF76E000EF86EE7
:1024F0000800F550750AD8A480EF12F082EF12F0B0
:10250000BEEF12F02750D96EDA6A020EDF26DF5CCA
:10251000D96EDA6A6F0078FF29F06F0078FF2AF031
:102520002650D96EDA6A2D28DF6EABEF12F025C087
:1025300019F029C01AF02AC01BF008EC16F0D8EFE9
:1025400012F025C019F029C01AF02AC01BF088EC3F
:1025500015F0D8EF12F06000B7F0F6FF200EF76E1E
:10256000000EF86E0800F550580AD8B4A1EF12F02A
:102570002D0AD8B497EF12F0BEEF12F02650D96EA4
:10258000DA6ADF2AD8EF12F02650D96EDA6A6F00C5
:102590007FFFF6FF200EF76E000EF86E0800F55074
:1025A000036E046A25C005F0EBEC17F0BEEF12F0E5
:1025B00012005B505C10D8B4E0EF12F0E2EF12F0C2
:1025C0000EEF13F05C6A000E5B6E030E026E700E6F
:1025D000016E5C0EE82EFED7012EFCD7022EFAD734
:1025E00000D0CBB6F6EF12F0F8EF12F00EEF13F0CA
:1025F0000001D84BD92BCBA600EF13F002EF13F05C
:10260000FBEF12F0030E026E700E016E5C0EE82EF0
:10261000FED7012EFCD7022EFAD700D059505A10FF
:10262000D8B415EF13F017EF13F043EF13F05A6A15
:10263000000E596E030E026E700E016E5C0EE82ED7
:10264000FED7012EFCD7022EFAD700D0CBB82BEF45
:1026500013F02DEF13F043EF13F00001D64BD72BFF
:10266000CBA835EF13F037EF13F030EF13F0030E74
:10267000026E700E016E5C0EE82EFED7012EFCD7A6
:10268000022EFAD700D00001DE51DF11D8B44BEF93
:1026900013F04DEF13F079EF13F0DF6B000EDE6FE8
:1026A000030E026E700E016E5C0EE82EFED7012E38
:1026B000FCD7022EFAD700D0CBBA61EF13F063EF4C
:1026C00013F079EF13F00001D44BD52BCBAA6BEFAD
:1026D00013F06DEF13F066EF13F0030E026E700E41
:1026E000016E5C0EE82EFED7012EFCD7022EFAD723
:1026F00000D00001DC51DD11D8B481EF13F083EF7D
:1027000013F0AFEF13F0DD6B000EDC6F030E026E03
:10271000700E016E5C0EE82EFED7012EFCD7022E45
:10272000FAD700D0CBBC97EF13F099EF13F0AFEFCF
:1027300013F00001D24BD32BCBACA1EF13F0A3EFDE
:1027400013F09CEF13F0030E026E700E016E5C0E20
:10275000E82EFED7012EFCD7022EFAD700D00001BA
:10276000DA51DB11D8B4B7EF13F0B9EF13F0E5EF9E
:1027700013F0DB6B000EDA6F030E026E700E016E4B
:102780005C0EE82EFED7012EFCD7022EFAD700D021
:10279000CBBECDEF13F0CFEF13F0E5EF13F0000158
:1027A000D04BD12BCBAED7EF13F0D9EF13F0D2EF44
:1027B00013F0030E026E700E016E5C0EE82EFED753
:1027C000012EFCD7022EFAD700D012003D0176B9B7
:1027D000ECEF13F0EEEF13F0FCEF13F076BBF3EF3A
:1027E00013F0F5EF13F0FCEF13F076ADFAEF13F002
:1027F000FCEF13F056EF14F076AB01EF14F003EF9B
:1028000014F00AEF14F0030E566E769BE5EC1BF005
:1028100053EF14F077B70FEF14F011EF14F028EF27
:1028200014F074AB16EF14F018EF14F028EF14F056
:10283000010E566E7699739D6C51D8B422EF14F048
:1028400024EF14F053EF14F06C6B6B6B53EF14F038
:1028500077A72DEF14F02FEF14F044EF14F074ABC2
:1028600034EF14F036EF14F044EF14F0020E566E0D
:102870007699739D6C51D8B440EF14F042EF14F088
:1028800053EF14F024EF14F076AD49EF14F04BEF52
:1028900014F052EF14F0030E566E769DCFEC1CF040
:1028A00053EF14F076995650D2EF14F079B55BEFF0
:1028B00014F05DEF14F06BEF14F079BF62EF14F0D9
:1028C00064EF14F06BEF14F079A369EF14F06BEF81
:1028D00014F0B3EF14F03901A2AF71EF14F073EFFD
:1028E00014F07AEF14F05250D96EDA6A6F00ABF53B
:1028F000DFFF522A3D0179A580EF14F082EF14F03A
:1029000086EF14F0CFEC1CF0D2EF14F079AF8BEF20
:1029100014F08DEF14F0A9EF14F05550D8B493EFE4
:1029200014F095EF14F09CEF14F0556A7991799FAB
:1029300039EC1CF0D2EF14F0739D6C51D8B4A3EFB6
:1029400014F0A5EF14F082EF14F06C6B6B6B82EF58
:1029500014F079A3AEEF14F0B0EF14F0D2EF14F04E
:102960007993D2EF14F03901A2AFB9EF14F0BBEFB5
:1029700014F0C4EF14F05250D96EDA6A6F00ABF560
:10298000DFFF522AD2EF14F0A3A1C9EF14F0CBEF6E
:1029900014F0D2EF14F04F50D96EDA6ADF503D01D7
:1029A0006B6F4F2A1200010E1E6E1BBEDAEF14F081
:1029B000DDEF14F0010EDEEF14F0000E216E57C0B3
:1029C0001FF058C020F02150D8B4E9EF14F0EBEF1D
:1029D00014F000EF15F01F06D8A020062150D8A44F
:1029E000F4EF14F0F6EF14F0FBEF14F01D6A2B0E69
:1029F0001C6EFEEF14F01D6A2D0E1C6E1CC021F023
:102A0000236A1F0E226E01011F6B33EF15F02206A1
:102A1000D8A02306000E2224D96E010E2320DA6EE0
:102A20001AC001F01BC002F0046A0A0E036E94EC97
:102A300017F001C007F002C008F0B3EC1BF007501C
:102A4000300FDF6E1E6A1F06D8A020061AC001F0E4
:102A50001BC002F0046A0A0E036ED9EC16F001C026
:102A60001AF002C01BF023BE3EEF15F0235008E120
:102A70002204D8A03EEF15F040EF15F065EF15F0F9
:102A80001A501B10D8A447EF15F049EF15F007EFC7
:102A900015F01E50D8A44FEF15F051EF15F007EFC9
:102AA00015F020BE5CEF15F0205008E11F04D8A0FF
:102AB0005CEF15F05EEF15F065EF15F05DB263EFBA
:102AC00015F065EF15F007EF15F02150D8B46BEF56
:102AD00015F06DEF15F079EF15F02206D8A023065A
:102AE000000E2224D96E010E2320DA6E600087F0DA
:102AF000DFFF19C011F0000E2224126E010E2320F8
:102B0000136E1FC014F020C015F094EC18F01200E2
:102B1000010E1F6E57C020F058C021F0246A1F0E0E
:102B2000236E01011F6BC6EF15F02306D8A0240603
:102B30001A500F0B226E0A0E2260A1EF15F0A3EFC0
:102B400015F0A7EF15F0300E2226A9EF15F0370E7D
:102B50002226000E2324D96E010E2420DA6E600096
:102B60008BF0DFFF1F6A2006D8A021061AC01CF0D8
:102B70001BC01DF0040E1E6ED8901D321C321E2E7E
:102B8000BCEF15F01CC01AF01DC01BF024BED2EF24
:102B900015F0245009E1020E235CD8A0D2EF15F005
:102BA000D4EF15F0F9EF15F01A501B10D8A4DBEF95
:102BB00015F0DDEF15F095EF15F01F50D8A4E3EFF9
:102BC00015F0E5EF15F095EF15F021BEF0EF15F0DB
:102BD000215008E12004D8A0F0EF15F0F2EF15F035
:102BE000F9EF15F05DB2F7EF15F0F9EF15F095EF8D
:102BF00015F019C011F0000E2324126E010E2420CE
:102C0000136E20C014F021C015F094EC18F01200DF
:102C1000010E1C6E57C01DF058C01EF0206A1F0E1A
:102C20001F6E01011F6B3BEF16F01F06D8A0200698
:102C3000000E1F24D96E010E2020DA6E1AC001F09A
:102C40001BC002F0046A0A0E036ECCEC19F00150AE
:102C5000300FDF6E1C6A1D06D8A01E061AC001F0D8
:102C60001BC002F0046A0A0E036E5DEC19F001C08D
:102C70001AF002C01BF01F502010D8B442EF16F01B
:102C800044EF16F069EF16F01A501B10D8A44BEF62
:102C900016F04DEF16F015EF16F01C50D8A453EFB8
:102CA00016F055EF16F015EF16F01EBE60EF16F099
:102CB0001E5008E11D04D8A060EF16F062EF16F078
:102CC00069EF16F05DB267EF16F069EF16F015EFD9
:102CD00016F019C011F0000E1F24126E010E2020F4
:102CE000136E1DC014F01EC015F094EC18F0120005
:102CF0003901A3AF7EEF16F080EF16F086EF16F0E5
:102D0000A39FFE0EB76EB66A0001E52B3901A0AF96
:102D10008CEF16F08EEF16F0D8EF16F03A0157A7A9
:102D200094EF16F096EF16F09AEF16F057975C6A4C
:102D3000010E5B6E57A99FEF16F0A1EF16F0A5EFFD
:102D400016F057995A6A010E596E57ABAAEF16F052
:102D5000ACEF16F0B1EF16F0579B0001DF6B010EE0
:102D6000DE6F3A0157ADB7EF16F0B9EF16F0BEEFD0
:102D700016F0579D0001DD6B010EDC6F3A0157AF75
:102D8000C4EF16F0C6EF16F0CBEF16F0579F000118
:102D9000DB6B010EDA6F3A0167ABD1EF16F0D3EFC0
:102DA00016F0D6EF16F0679B010E5E6E3901A09FFC
:102DB0001100066A04BEE1EF16F0DFEF16F0E7EF50
:102DC00016F0036C041ED8B0042A010E066E02BE73
:102DD000EEEF16F0ECEF16F0F4EF16F0016C021EB9
:102DE000D8B0022A010E061A086A000E076E0350B8
:102DF0000410D8B4FEEF16F000EF17F028EF17F02C
:102E0000010E056E08EF17F0D89003360436052A38
:102E100004AE0DEF17F00FEF17F004EF17F0D89096
:102E2000073608360350015C04500258D8A01BEF47
:102E300017F01DEF17F022EF17F00350015E04505A
:102E4000025A0780D89004320332052E0FEF17F094
:102E50000650D8B42EEF17F030EF17F034EF17F01C
:102E6000076C081ED8B0082A07C001F008C002F09D
:102E70001200076A000E066E0150D96EDA6A6F0002
:102E80007FFFF6FF200EF76E000EF86E0800F5507B
:102E90002A0AD8A44EEF17F050EF17F079EF17F089
:102EA0000150D96EDA6ADF2A0250D96EDA6A020E50
:102EB000DF26DF5CD96EDA6A6F0078FF06F06F00FC
:102EC00078FF07F08FEF17F00A0E06026F00CCFFB5
:102ED00003F06F00D0FF04F00702F3500426055002
:102EE0000324066E000E0420076E0150D96EDA6AC4
:102EF000DF2A0150D96EDA6A6F007FFFF6FF200EDD
:102F0000F76E000EF86E0800F550D00F056E090E32
:102F100005648DEF17F08FEF17F064EF17F006C020
:102F200001F007C002F01200066A02BE9CEF17F023
:102F30009AEF17F0A2EF17F0016C021ED8B0022A28
:102F4000010E066E04BEA9EF17F0A7EF17F0ADEF64
:102F500017F0036C041ED8B0042A03500410D8B430
:102F6000B4EF17F0B6EF17F0DAEF17F0010E056EB9
:102F7000BEEF17F0D89003360436052A04AEC3EF2F
:102F800017F0C5EF17F0BAEF17F00350015C0450CB
:102F90000258D8A0CEEF17F0D0EF17F0D4EF17F00B
:102FA0000350015E0450025AD89004320332052EB9
:102FB000C5EF17F00650D8B4E0EF17F0E2EF17F0C6
:102FC000E6EF17F0016C021ED8B0022A01C001F032
:102FD00002C002F012000550D8B4F1EF17F0F3EF81
:102FE00017F0FBEF17F00550D8A4F9EF17F0FBEF3F
:102FF00017F000EF18F00350B1EC1CF040EF18F0A0
:103000000550D96EDA6A090ED926DE50DE10D8B422
:103010000CEF18F00EEF18F027EF18F00550D96EEE
:10302000DA6A090ED9260550E16EE26A020EE1263F
:10303000DE50E65CE650800A0A6EDE50800A0A58CE
:10304000D8B025EF18F027EF18F040EF18F0055032
:10305000D96EDA6A020ED926DF50066E0550D96E97
:10306000DA6ADF500624D96EDA6A60000FF0DFFFFB
:103070000550D96EDA6A020ED926DE2A000EDD224C
:103080001200BA6A060EBB6EBC6ABD6ABE6A3A011D
:10309000426B060E526F626B726B826BC268F90EE6
:1030A000C36EFB0EC46EFE0EC56E070EC66E406983
:1030B000F90E506FF30E606FFC0E706F070E806F8D
:1030C000416B516B616B716B816B436953696369D0
:1030D0007369070E836F44695469646974690F0EDC
:1030E000846F5A6B5B6B6A6B6B6B7A6B7B6B190EC5
:1030F000E86F130EE56F160E186F130E126F090EA0
:10310000E16F210E096F0A0EE26F220E0A6F456B06
:10311000466B476B556B566B576B656B666B676B96
:10312000856B866B876B12005DA099EF18F09BEFA3
:1031300018F0A3EF18F012C00BF013C00CF011C080
:103140000DF024EC1BF015BEAAEF18F0A8EF18F054
:10315000ADEF18F0156A000E146E186A000E176EA7
:10316000BBEF18F0046A200E036E11C005F0EBEC03
:1031700017F0174A182A1450175C1850800A166E58
:103180001550800A1658D8A0C8EF18F0CAEF18F0EA
:10319000B2EF18F05DB0CFEF18F0D1EF18F0D9EF23
:1031A00018F012C00BF013C00CF011C00DF024EC9D
:1031B0001BF01200200E036EA10E046E070E056EAA
:1031C000000E066EEBEF18F0E6EC13F00306000EAF
:1031D000045A055A065AFCEC1BF00009D8B4F3EF68
:1031E00018F0F5EF18F000EF19F003500410051077
:1031F0000610D8A4FEEF18F000EF19F0E4EF18F075
:103200000350041005100610D8A409EF19F00BEFB5
:1032100019F01AEF19F016EC1DF0680E026EE40EAC
:10322000E82EFED7022EFCD700D02EEC1AF0000EAE
:103230001BEF19F0010E12000B6A000E0C6E000E4F
:103240000D6E000E0E6E036A680E026E0B0E046E9B
:10325000066A010E056E0C0E076E096A030E086EF3
:1032600057EC1AF00009D8A438EF19F03AEF19F02A
:103270003DEF19F0000E5CEF19F0DAEC18F00009E0
:10328000D8A445EF19F047EF19F049EF19F03AEFDC
:1032900019F00C507F0B00EC1DF00001E96F0D5090
:1032A0007F0B00EC1DF00001E76F0E503F0B00ECB0
:1032B0001DF00001E86F010E1200066A000E056E97
:1032C00003500410D8B467EF19F069EF19F091EFCB
:1032D00019F0010E076E71EF19F0D890033604361D
:1032E000072A04AE76EF19F078EF19F06DEF19F0B8
:1032F000D890053606360350015C04500258D8A019
:1033000084EF19F086EF19F08BEF19F00350015E8E
:103310000450025A0580D89004320332072E78EF09
:1033200019F005C001F006C002F012003D01E96B82
:10333000EB6BEC6BED6BEE6BEF6BF06BF16BB00E60
:10334000F26F800EF36F080EF46F820EF56F060EAB
:10335000F66F2E0EF76FF86B800EF96FFA6B000E9A
:10336000016E000E026E000E036EA0EC1CF0000E4B
:10337000016E000E026E000E036E8FEC1CF0000E4C
:10338000016E000E026E000E036E7EEC1CF000015A
:10339000E16B000EE06F120003500410D8B4D3EFBD
:1033A00019F0D5EF19F0F9EF19F0010E056EDDEF08
:1033B00019F0D89003360436052A04AEE2EF19F06E
:1033C000E4EF19F0D9EF19F00350015C04500258F2
:1033D000D8A0EDEF19F0EFEF19F0F3EF19F003506B
:1033E000015E0450025AD89004320332052EE4EFF5
:1033F00019F001C001F002C002F012003D01D46BCF
:10340000D66BD86BB00EDA6F800EDB6FDC6B820E82
:10341000DD6F060EDE6F2E0EDF6FE06B800EE16F4C
:10342000E26B000E016E000E026E000E036E6DEC7C
:103430001CF0000E016E000E026E000E036E5CECBE
:103440001CF0000E016E000E026E000E036E4BECBF
:103450001CF00001E36B000EE26F1200040E3D0150
:10346000736F800E746F080E756F030E7B6F796B30
:103470007A6B766B6C6B510E3A015A6F510E5B6F23
:103480003D01738F050EE82EFED7000000000000FE
:1034900000000000000000003D0179917995000EC8
:1034A0000001CB6F000ECC6F000ECD6F12000A6AC8
:1034B000FCEC1BF00009D8A460EF1AF062EF1AF0E0
:1034C0007BEF1AF0010E4C6E02C04DF003C04EF0BF
:1034D000010E556E04C04FF005C050F006C051F00B
:1034E00007C052F008C053F009C054F0566A60ECAF
:1034F0001BF0010E0A6E0A501200D29A3901A191F6
:10350000D280000E016E000E026E000E036E37ECCC
:103510001DF03901A591D282000E016E000E026EDF
:10352000000E036E30EC1DF03901A79BD284000E13
:10353000016E000E026E000E036E29EC1DF01200EB
:10354000076AFCEC1BF00009D8A4A9EF1AF0ABEF56
:103550001AF0C1EF1AF0010E4C6E02C04DF003C01C
:103560004EF0556A04C04FF005C050F006C051F04F
:10357000526A546A000E536E566A60EC1BF0010EDC
:10358000076E075012002FC031F0CFEF1AF02EC097
:1035900025F0310E266E30C027F0BEEC11F0600031
:1035A000C7F0F6FF200EF76E000EF86E0800F5501B
:1035B0000009D8A4DEEF1AF0E0EF1AF0C7EF1AF016
:1035C0002F6A000E2E6E1200C386C388C38AC38C76
:1035D000C38E3A0150975099509B509D509F5187F0
:1035E0005189518B518D518F56875689568B568DE7
:1035F000568F55975599559B559D559F576B39013A
:10360000A09F908FD28E120018EF1BF025EC1CF0BB
:103610000009D8B40EEF1BF010EF1BF006EF1BF003
:103620000250D96EDA6ADF50016E49EC1DF0022AB1
:103630000250D96EDA6ADF50D8A421EF1BF023EFD5
:103640001BF006EF1BF01200106A000E0F6E32EF37
:103650001BF00EC003F0046A0DC005F0EBEC17F090
:103660000F4A102A0F500B24D96E10500C20DA6E1E
:10367000DF500E6E0E50D8A440EF1BF042EF1BF04F
:1036800029EF1BF01200096E09C00AF008C00BF008
:10369000036A680E026E0A0E046E066A020E056E5A
:1036A000A0EC1AF00009D8A458EF1BF05AEF1BF059
:1036B0005DEF1BF0000E5FEF1BF0DAEC18F012006C
:1036C00050505110D8B467EF1BF069EF1BF076EF44
:1036D0001BF0600043F16CFD5550D8B472EF1BF045
:1036E00074EF1BF076EF1BF03D01738D4D504D24B0
:1036F0003D016E6F738B12003E01C18FC151FC0BF7
:103700000109C16FC1AD87EF1BF089EF1BF082EF9C
:103710001BF0F8893F0EFF6FF00EFD170F0EFD171F
:103720003E0EF16FF851F30B0409F86FF88F120099
:1037300000EE00F1200EEE6AE806FDE100EEADF0CD
:103740003D0EEE6AE806FDE100EE4CF0130EEE6A67
:10375000E806FDE1080ED56E000ED66E000ED76E9F
:10376000000158EF10F008BEB8EF1BF0BAEF1BF0E5
:10377000C0EF1BF007C007F008C008F0CCEF1BF04B
:1037800007C009F008C00AF0091E0A1E094A0A2AE1
:1037900009C007F00AC008F01200340E406E32C0B3
:1037A00041F0446A000E436E4B6A000E4A6E410EB1
:1037B0002E6E33C02FF0400E306EC3EC1AF0325034
:1037C0004324D96EDA6ADF6A12003D01796B769B79
:1037D000769D7699786B7885739F738F050EE82EAA
:1037E000FED7000000000000000000000000000004
:1037F0003D01799179951200010E016E4C50D8A4CB
:1038000004EF1CF006EF1CF00FEF1CF03D0177AF4A
:103810000CEF1CF00EEF1CF00FEF1CF0016A0150D2
:103820001200016A3D01DFAB18EF1CF01AEF1CF02B
:1038300023EF1CF0DAAB1FEF1CF021EF1CF023EF9D
:103840001CF0010E016E01501200016A3D01F7AB40
:103850002CEF1CF02EEF1CF037EF1CF0F2AB33EF27
:103860001CF035EF1CF037EF1CF0010E016E01501B
:10387000120053505410D8B440EF1CF042EF1CF02B
:1038800045EF1CF060004FF16CFDD8804D343D01D8
:103890006E6F738B1200015002100310D8B453EFF7
:1038A0001CF055EF1CF05BEF1CF001C0B9F002C03A
:1038B000BAF003C0BBF01200015002100310D8B4DC
:1038C00064EF1CF066EF1CF06CEF1CF001C0BCF064
:1038D00002C0BDF003C0BEF0120001500210031080
:1038E000D8B475EF1CF077EF1CF07DEF1CF001C031
:1038F000BFF002C0C0F003C0C1F0120001500210BE
:103900000310D8B486EF1CF088EF1CF08EEF1CF08B
:1039100001C0B0F002C0B1F003C0B2F0120001501B
:1039200002100310D8B497EF1CF099EF1CF09FEF32
:103930001CF001C0B3F002C0B4F003C0B5F0120037
:10394000015002100310D8B4A8EF1CF0AAEF1CF02D
:10395000B0EF1CF001C0B6F002C0B7F003C0B8F081
:103960001200026E11EC1CF00009D8B4BAEF1CF082
:10397000BCEF1CF0B2EF1CF0025044EC1DF0120042
:10398000B888B9501F0B4009B96E0F0EB912FE0E60
:10399000B76EB66A3901938FA39FB88E12004C6A36
:1039A000000E4E6E4D684F6A526A3D01796B769BF0
:1039B000769D7699786B7885120020EC1DF041ECAD
:1039C00018F02EEC1AF096EC19F0FEEC19F07DECE4
:1039D0001AF01200330E396E000E2E6E32C02FF028
:1039E000390E306EC3EC1AF012003D01F7A3FBEF65
:1039F0001CF0FEEF1CF0010EFFEF1CF0000E120099
:103A0000026E02C001F00F0E011602380F0B0A0DF4
:103A1000F35001241200C48A3A01609B618B679BBA
:103A2000668B659B3901A09F908F12003D01736BDF
:103A3000746B756B7B6B796B7A6B766B6C6B12004E
:103A4000600E3901D96FDB6BDD6B080EDF6FDE6B4B
:103A5000120001C0C2F002C0C3F003C0C4F01200E3
:103A600001C0C5F002C0C6F003C0C7F0120001C01B
:103A7000C8F002C0C9F003C0CAF01200000E086E00
:103A80000F0E43EC1BF01200016E600007F0D2FD38
:103A90001200600007F0EAFD12003D01E85112003B
:063AA0001CEC19F01200FD
:020000040030CA
:0A0000008FDF37EF9FFFFFFFFFFFC8
:00000001FF
