:040000000DEF00F010
:0400080011EF18F0EC
:06001800FF0069EF1DF07E
:1020000000623600000000B23E00AA3E00EC3D0037
:102010004C3C000000000000000000000000000038
:1020200000000000000000000000000000000000B0
:1020300000000000000000000000000000423D0021
:10204000203D00FE3C00000000476174655F3031B8
:102050002C25642C25642C25642C25642C25642CCB
:1020600025642C253032750D0A004354524C3A2514
:1020700030325820535441543A253032582052437C
:10208000353A25750D0A00476174655F30312C259E
:10209000642C25642C25642C25642C25642C256453
:1020A0000D0A0054696D653A20253032753A2530A5
:1020B00032753A253032750D0A00445333323331CC
:1020C0002072656164206661696C65640D0A005365
:1020D0006C656570696E672E2E2E0D0A000000017A
:1020E000AB6B000EAA6FAD6B000EAC6FA76B000E52
:1020F000A66FA56B000EA46FAE6BB36B000EB26F34
:10210000150EA86FA26B070EB16FA96BA369DEEC69
:102110001EF04DEC1DF03901D1833A01406B506B3C
:10212000706BC580C594C59670957097C290BA9033
:10213000BD84BD860001F06BEF6BEE6BC1EC1EF051
:10214000B5EC1CF017EC1FF04AEC1FF0050E000177
:10215000616F0F0E606FF10EE82EFED7602FFCD777
:10216000612FFAD7D28E5CEC1FF00001F351A31956
:10217000D8B4BDEF10F0BFEF10F0D6EF10F0F3C001
:10218000A3F0A30E326EF2C033F0346AF1C035F022
:10219000366AF3C037F0386AEBEC1EF0820E326E0E
:1021A000B2C033F0B3C034F0EBEC1EF00001F251DA
:1021B000A85DD8A0DEEF10F0E0EF10F00DEF11F009
:1021C000A851F219D8A4E7EF10F0E9EF10F0F2EF00
:1021D00010F0A251F15DD8B0F0EF10F0F2EF10F076
:1021E0000DEF11F0B151F25DD8A0F9EF10F0FBEF57
:1021F00010F00DEF11F0B151F219D8A402EF11F067
:1022000004EF11F025EF11F0A951F15DD8B00BEFFB
:1022100011F00DEF11F025EF11F0BD96CF0E326EDB
:10222000EBEC1EF00CEC1FF00009D8B41AEF11F023
:102230001CEF11F012EF11F0A9C015F0000E166E90
:102240000001B15167EC1BF0BD860001F051D8A42C
:102250002CEF11F02EEF11F03DEF11F0040EEF65B1
:1022600034EF11F036EF11F067EF11F0010EEE6F61
:10227000EF6B010EF06F67EF11F0F005D8A443EF9C
:1022800011F045EF11F053EF11F0130EEF654BEF26
:1022900011F04DEF11F067EF11F0BD94EF6B020EEE
:1022A000F06F67EF11F0020EF019D8A45AEF11F099
:1022B0005CEF11F067EF11F0130EEF6562EF11F0B4
:1022C00064EF11F067EF11F0BD84EF6BF06BEE512E
:1022D000D8B46DEF11F06FEF11F092EF11F0EE6BDB
:1022E000620E326E870E336EAAC034F0ABC035F08A
:1022F000E0C036F0E1C037F0DEC038F0DFC039F0C2
:10230000DCC03AF0DDC03BF0DAC03CF0DBC03DF0B1
:10231000D8C03EF0D9C03FF0B7EC1DF0620E026E9F
:10232000D5EC1CF0F6EC1EF00009D8B49AEF11F0D1
:102330009CEF11F0FCEF11F059EC1FF00001B46FAD
:10234000EDEF11F04C0EB419D8A4A9EF11F0ABEFDA
:1023500011F0FCEF11F0010EAE6FFCEF11F0450E25
:10236000B419D8A4B6EF11F0B8EF11F0BCEF11F02A
:10237000020EAE6FFCEF11F04C0EB419D8A4C3EFEF
:1023800011F0C5EF11F0C7EF11F0ABEF11F0AE6B2C
:10239000FCEF11F0440EB419D8A4D1EF11F0D3EF33
:1023A00011F0C7EF11F0AB6B000EAA6FE16B000EDE
:1023B000E06FDF6B000EDE6FDD6B000EDC6FDB6B42
:1023C000000EDA6FD96B000ED86FA76B000EA66FE8
:1023D000A56B010EA46FC7EF11F0AE51000AD8B47F
:1023E000A2EF11F0010AD8B4AFEF11F0030AD8B48C
:1023F000CAEF11F0C7EF11F00001A405A511D8A490
:1024000004EF12F006EF12F016EF12F0BA90CDB012
:102410000CEF12F00EEF12F032EF12F0A56B000E7F
:10242000A46FA76B000EA66F32EF12F0CDA01BEFCA
:1024300012F01DEF12F023EF12F0BA80A76B010E1D
:10244000A66F32EF12F0BA90A605A711D8A42BEF11
:1024500012F02DEF12F032EF12F0AA4BAB2BA76B5C
:10246000000EA66F06EC14F00001B06B000EAF6F0B
:10247000F151D8A43EEF12F040EF12F0D3EF12F07A
:10248000AC51AD11D8A447EF12F049EF12F0D3EFE1
:1024900012F0AD6B010EAC6FE6EC1DF001C0B2F0B6
:1024A00002C0B3F0620E326E490E336EAAC034F031
:1024B000ABC035F0E0C036F0E1C037F0DEC038F038
:1024C000DFC039F0DCC03AF0DDC03BF0DAC03CF0F0
:1024D000DBC03DF0D8C03EF0D9C03FF0B2C040F004
:1024E000B3C041F0B7EC1DF01E0E0001B25D050E49
:1024F000B359D8A07EEF12F080EF12F0D3EF12F0B4
:10250000BD84340EF36587EF12F089EF12F091EF7E
:1025100012F0CC0EF325AF6FB06BFF0EB02397EF28
:1025200012F0080EF325AF6FB06B000EB023F3511D
:10253000606F616BAF51601907E1B0516119D8A4A8
:10254000A4EF12F0A6EF12F097EF12F0620E026EF7
:10255000D5EC1CF05CEC1FF0340E0001F365B3EF1A
:1025600012F0B5EF12F0BDEF12F0CC0EF325AF6F05
:10257000B06BFF0EB023C3EF12F0080EF325AF6F60
:10258000B06B000EB023F351606F616BAF516019F7
:1025900007E1B0516119D8A4D0EF12F0D2EF12F0D8
:1025A000C3EF12F0BD94F151D8B4D9EF12F0DBEFC4
:1025B00012F0B3EF10F0AC05AD11D8A4E2EF12F0B9
:1025C000E4EF12F0B3EF10F0AD6B000EAC6FB3EFB1
:1025D00010F00DEF00F02650D96EDA6A6F007FFF21
:1025E000F6FF200EF76E000EF86E0800F550250A73
:1025F000D8A4FDEF12F0FFEF12F0F1EF13F0265028
:10260000D96EDA6ADF2A5A6A000E596E59C05DF037
:102610000001D669D769286A2BEF13F05D82265036
:10262000D96EDA6ADF2A2BEF13F0010E286E2BEF3A
:1026300013F02650D96EDA6A6F007FFFF6FF200E86
:10264000F76E000EF86E0800F550300AD8B40EEFA1
:1026500013F015EF13F02850D8B431EF13F033EF27
:1026600013F019EF13F026C001F027C002F0D4ECEC
:1026700018F001C059F002C05AF05ABE44EF13F0EE
:1026800042EF13F049EF13F05D80596C5A1ED8B039
:102690005A2A2650D96EDA6ADF502D6E6000B7F0E4
:1026A000F6FF200EF76E000EF86E0800F550640A73
:1026B000D8B45DEF13F05FEF13F070EF13F060002C
:1026C000B7F0F6FF200EF76E000EF86E0800F5501A
:1026D000690AD8A46EEF13F070EF13F08DEF13F0CA
:1026E0002750D96EDA6A020EDF26DF5CD96EDA6A0D
:1026F0006F0078FF29F06F0078FF2AF02650D96E1E
:10270000DA6A2D28DF6E25C019F029C01AF02AC018
:102710001BF001EC16F005EF14F06000B7F0F6FFC7
:10272000200EF76E000EF86E0800F550580AD8B467
:102730009CEF13F09EEF13F0AFEF13F06000B7F0D3
:10274000F6FF200EF76E000EF86E0800F550750AC1
:10275000D8A4ADEF13F0AFEF13F0EBEF13F0275069
:10276000D96EDA6A020EDF26DF5CD96EDA6A6F0094
:1027700078FF29F06F0078FF2AF02650D96EDA6AC8
:102780002D28DF6ED8EF13F025C019F029C01AF0FC
:102790002AC01BF036EC17F005EF14F025C019F035
:1027A00029C01AF02AC01BF0B6EC16F005EF14F0A1
:1027B0006000B7F0F6FF200EF76E000EF86E08000E
:1027C000F550580AD8B4CEEF13F02D0AD8B4C4EFA0
:1027D00013F0EBEF13F02650D96EDA6ADF2A05EF1B
:1027E00014F02650D96EDA6A6F007FFFF6FF200ED4
:1027F000F76E000EF86E0800F550036E046A25C0EF
:1028000005F086EC19F0EBEF13F012005B505C1052
:10281000D8B40DEF14F00FEF14F03BEF14F05C6A36
:10282000000E5B6E030E026E700E016E5C0EE82EE3
:10283000FED7012EFCD7022EFAD700D0CBB623EF5D
:1028400014F025EF14F03BEF14F00001E04BE12B06
:10285000CBA62DEF14F02FEF14F028EF14F0030E99
:10286000026E700E016E5C0EE82EFED7012EFCD7B4
:10287000022EFAD700D00001E851E911D8B443EF95
:1028800014F045EF14F071EF14F0E96B000EE86FEF
:10289000030E026E700E016E5C0EE82EFED7012E46
:1028A000FCD7022EFAD700D0CBB859EF14F05BEF6B
:1028B00014F071EF14F00001DE4BDF2BCBA863EFB7
:1028C00014F065EF14F05EEF14F0030E026E700E5C
:1028D000016E5C0EE82EFED7012EFCD7022EFAD731
:1028E00000D00001E651E711D8B479EF14F07BEF86
:1028F00014F0A7EF14F0E76B000EE66F030E026E04
:10290000700E016E5C0EE82EFED7012EFCD7022E53
:10291000FAD700D0CBBA8FEF14F091EF14F0A7EFF5
:1029200014F00001DC4BDD2BCBAA99EF14F09BEFE8
:1029300014F094EF14F0030E026E700E016E5C0E34
:10294000E82EFED7012EFCD7022EFAD700D00001C8
:10295000E451E511D8B4AFEF14F0B1EF14F0DDEFAE
:1029600014F0E56B000EE46F030E026E700E016E44
:102970005C0EE82EFED7012EFCD7022EFAD700D02F
:10298000CBBCC5EF14F0C7EF14F0DDEF14F000017D
:10299000DA4BDB2BCBACCFEF14F0D1EF14F0CAEF56
:1029A00014F0030E026E700E016E5C0EE82EFED760
:1029B000012EFCD7022EFAD700D00001E251E3111C
:1029C000D8B4E5EF14F0E7EF14F013EF15F0E36B74
:1029D000000EE26F030E026E700E016E5C0EE82EAA
:1029E000FED7012EFCD7022EFAD700D0CBBEFBEFCC
:1029F00014F0FDEF14F013EF15F00001D84BD92BB4
:102A0000CBAE05EF15F007EF15F000EF15F0030E54
:102A1000026E700E016E5C0EE82EFED7012EFCD702
:102A2000022EFAD700D012003D0176B91AEF15F048
:102A30001CEF15F02AEF15F076BB21EF15F023EF10
:102A400015F02AEF15F076AD28EF15F02AEF15F006
:102A500084EF15F076AB2FEF15F031EF15F038EF6E
:102A600015F0030E586E769BCFEC1DF081EF15F03C
:102A700077B73DEF15F03FEF15F056EF15F074AB5B
:102A800044EF15F046EF15F056EF15F0010E586EB5
:102A90007699739D6C51D8B450EF15F052EF15F044
:102AA00081EF15F06C6B6B6B81EF15F077A75BEF27
:102AB00015F05DEF15F072EF15F074AB62EF15F0E5
:102AC00064EF15F072EF15F0020E586E7699739D53
:102AD0006C51D8B46EEF15F070EF15F081EF15F072
:102AE00052EF15F076AD77EF15F079EF15F080EF36
:102AF00015F0030E586E769DD0EC1EF081EF15F0A8
:102B00007699585000EF16F079B589EF15F08BEFF4
:102B100015F099EF15F079BF90EF15F092EF15F0E1
:102B200099EF15F079A397EF15F099EF15F0E1EF14
:102B300015F03901A2AF9FEF15F0A1EF15F0A8EF46
:102B400015F05450D96EDA6A6F00ABF5DFFF542AE6
:102B50003D0179A5AEEF15F0B0EF15F0B4EF15F02B
:102B6000D0EC1EF000EF16F079AFB9EF15F0BBEF27
:102B700015F0D7EF15F05750D8B4C1EF15F0C3EFEB
:102B800015F0CAEF15F0576A7991799F3AEC1EF06B
:102B900000EF16F0739D6C51D8B4D1EF15F0D3EF60
:102BA00015F0B0EF15F06C6B6B6BB0EF15F079A30F
:102BB000DCEF15F0DEEF15F000EF16F0799300EF83
:102BC00016F03901A2AFE7EF15F0E9EF15F0F2EFDB
:102BD00015F05450D96EDA6A6F00ABF5DFFF542A56
:102BE00000EF16F0A3A1F7EF15F0F9EF15F000EFE5
:102BF00016F05150D96EDA6ADF503D016B6F512AE1
:102C00001200010E1E6E1BBE08EF16F00BEF16F041
:102C1000010E0CEF16F0000E216E59C01FF05AC0C5
:102C200020F02150D8B417EF16F019EF16F02EEF60
:102C300016F01F06D8A020062150D8A422EF16F0C7
:102C400024EF16F029EF16F01D6A2B0E1C6E2CEFE8
:102C500016F01D6A2D0E1C6E1CC021F0236A1F0E7B
:102C6000226E01011F6B61EF16F02206D8A0230629
:102C7000000E2224D96E010E2320DA6E1AC001F054
:102C80001BC002F0046A0A0E036E2FEC19F001C09B
:102C900007F002C008F084EC1DF00750300FDF6E23
:102CA0001E6A1F06D8A020061AC001F01BC002F041
:102CB000046A0A0E036E74EC18F001C01AF002C028
:102CC0001BF023BE6CEF16F0235008E12204D8A0BD
:102CD0006CEF16F06EEF16F093EF16F01A501B1013
:102CE000D8A475EF16F077EF16F035EF16F01E50FA
:102CF000D8A47DEF16F07FEF16F035EF16F020BE6A
:102D00008AEF16F0205008E11F04D8A08AEF16F0D1
:102D10008CEF16F093EF16F05DB291EF16F093EF93
:102D200016F035EF16F02150D8B499EF16F09BEF5E
:102D300016F0A7EF16F02206D8A02306000E2224D4
:102D4000D96E010E2320DA6E600087F0DFFF19C014
:102D500011F0000E2224126E010E2320136E1FC0EC
:102D600014F020C015F02FEC1AF01200010E1F6EA7
:102D700059C020F05AC021F0246A1F0E236E0101B1
:102D80001F6BF4EF16F02306D8A024061A500F0B81
:102D9000226E0A0E2260CFEF16F0D1EF16F0D5EFBB
:102DA00016F0300E2226D7EF16F0370E2226000E30
:102DB0002324D96E010E2420DA6E60008BF0DFFF31
:102DC0001F6A2006D8A021061AC01CF01BC01DF0E7
:102DD000040E1E6ED8901D321C321E2EEAEF16F025
:102DE0001CC01AF01DC01BF024BE00EF17F02450C9
:102DF00009E1020E235CD8A000EF17F002EF17F0F4
:102E000027EF17F01A501B10D8A409EF17F00BEF9B
:102E100017F0C3EF16F01F50D8A411EF17F013EFFF
:102E200017F0C3EF16F021BE1EEF17F0215008E196
:102E30002004D8A01EEF17F020EF17F027EF17F0AF
:102E40005DB225EF17F027EF17F0C3EF16F019C0AA
:102E500011F0000E2324126E010E2420136E20C0E8
:102E600014F021C015F02FEC1AF01200010E1C6EA8
:102E700059C01DF05AC01EF0206A1F0E1F6E0101BE
:102E80001F6B69EF17F01F06D8A02006000E1F2445
:102E9000D96E010E2020DA6E1AC001F01BC002F0BC
:102EA000046A0A0E036E9DEC1BF00150300FDF6EBA
:102EB0001C6A1D06D8A01E061AC001F01BC002F035
:102EC000046A0A0E036EF8EC1AF001C01AF002C090
:102ED0001BF01F502010D8B470EF17F072EF17F0EE
:102EE00097EF17F01A501B10D8A479EF17F07BEF6B
:102EF00017F043EF17F01C50D8A481EF17F083EFC1
:102F000017F043EF17F01EBE8EEF17F01E5008E1CA
:102F10001D04D8A08EEF17F090EF17F097EF17F081
:102F20005DB295EF17F097EF17F043EF17F019C068
:102F300011F0000E1F24126E010E2020136E1DC012
:102F400014F01EC015F02FEC1AF012000F6E000ED8
:102F5000086E0E0E14EC1DF00009D8A4B2EF17F0A5
:102F6000B4EF17F0B7EF17F0000E10EF18F0D00E17
:102F70000E6ECA0EE82EFED70E2EFCD7000E086E7F
:102F80000F0E14EC1DF00009D8A4C9EF17F0CBEF19
:102F900017F0CDEF17F0B4EF17F0D00E0E6ECA0E8B
:102FA000E82EFED70E2EFCD7070E106E0D509EECAD
:102FB0001DF0116E0C509EEC1DF0126E0F509EEC29
:102FC0001DF0136E800E146E036A680E026E100EF2
:102FD000046E066A050E056E71EC1CF00009D8A49B
:102FE000F4EF17F0F6EF17F0F8EF17F0B4EF17F073
:102FF00075EC1AF00009D8A400EF18F002EF18F0F1
:1030000004EF18F0B4EF17F0D00E0E6ECA0EE82ED3
:10301000FED70E2EFCD7050E086E0E0E14EC1DF01A
:1030200012003901A3AF17EF18F019EF18F01FEFD6
:1030300018F0A39FFC0EB76EB66A0001EF2B3901A2
:10304000A0AF25EF18F027EF18F073EF18F03A0152
:1030500057A72DEF18F02FEF18F033EF18F0579710
:103060005C6A010E5B6E57A938EF18F03AEF18F062
:103070003FEF18F057990001E96B010EE86F3A0134
:1030800057AB45EF18F047EF18F04CEF18F0579B8F
:103090000001E76B010EE66F3A0157AD52EF18F0F1
:1030A00054EF18F059EF18F0579D0001E56B010E31
:1030B000E46F3A0157AF5FEF18F061EF18F066EF79
:1030C00018F0579F0001E36B010EE26F3A0167AB06
:1030D0006CEF18F06EEF18F071EF18F0679B010EAF
:1030E0005E6E3901A09F1100066A04BE7CEF18F0E5
:1030F0007AEF18F082EF18F0036C041ED8B0042A9F
:10310000010E066E02BE89EF18F087EF18F08FEF00
:1031100018F0016C021ED8B0022A010E061A086AC5
:10312000000E076E03500410D8B499EF18F09BEF0F
:1031300018F0C3EF18F0010E056EA3EF18F0D89049
:1031400003360436052A04AEA8EF18F0AAEF18F0EB
:103150009FEF18F0D890073608360350015C0450F2
:103160000258D8A0B6EF18F0B8EF18F0BDEF18F07D
:103170000350015E0450025A0780D8900432033293
:10318000052EAAEF18F00650D8B4C9EF18F0CBEF0F
:1031900018F0CFEF18F0076C081ED8B0082A07C047
:1031A00001F008C002F01200076A000E066E01501E
:1031B000D96EDA6A6F007FFFF6FF200EF76E000E01
:1031C000F86E0800F5502A0AD8A4E9EF18F0EBEFE2
:1031D00018F014EF19F00150D96EDA6ADF2A0250A4
:1031E000D96EDA6A020EDF26DF5CD96EDA6A6F000A
:1031F00078FF06F06F0078FF07F02AEF19F00A0E4B
:1032000006026F00CCFF03F06F00D0FF04F007024E
:10321000F350042605500324066E000E0420076EAA
:103220000150D96EDA6ADF2A0150D96EDA6A6F006E
:103230007FFFF6FF200EF76E000EF86E0800F550C7
:10324000D00F056E090E056428EF19F02AEF19F06A
:10325000FFEF18F006C001F007C002F01200066A86
:1032600002BE37EF19F035EF19F03DEF19F0016CA0
:10327000021ED8B0022A010E066E04BE44EF19F0F9
:1032800042EF19F048EF19F0036C041ED8B0042A7D
:1032900003500410D8B44FEF19F051EF19F075EF47
:1032A00019F0010E056E59EF19F0D8900336043667
:1032B000052A04AE5EEF19F060EF19F055EF19F032
:1032C0000350015C04500258D8A069EF19F06BEF6D
:1032D00019F06FEF19F00350015E0450025AD890B4
:1032E00004320332052E60EF19F00650D8B47BEF9C
:1032F00019F07DEF19F081EF19F0016C021ED8B0C2
:10330000022A01C001F002C002F012000550D8B438
:103310008CEF19F08EEF19F096EF19F00550D8A444
:1033200094EF19F096EF19F09BEF19F00350B2ECFF
:103330001EF0DBEF19F00550D96EDA6A090ED926B6
:10334000DE50DE10D8B4A7EF19F0A9EF19F0C2EFE4
:1033500019F00550D96EDA6A090ED9260550E16ECA
:10336000E26A020EE126DE50E65CE650800A0A6E52
:10337000DE50800A0A58D8B0C0EF19F0C2EF19F039
:10338000DBEF19F00550D96EDA6A020ED926DF504C
:10339000066E0550D96EDA6ADF500624D96EDA6AF5
:1033A00060000FF0DFFF0550D96EDA6A020ED926F1
:1033B000DE2A000EDD221200BA6A060EBB6EBC6A5F
:1033C000BD6ABE6A3A01426B060E526F626B726B47
:1033D000826BC268F90EC36EFB0EC46EFE0EC56E24
:1033E000070EC66E4069F90E506FF30E606FFC0E4B
:1033F000706F070E806F416B516B616B716B816BEE
:103400004369536963697369070E836F446954693B
:10341000646974690F0E846F5A6B5B6B6A6B6B6BBC
:103420007A6B7B6B190EE86F130EE56F160E186F33
:10343000130E126F090EE16F210E096F0A0EE26F73
:10344000220E0A6F456B466B476B556B566B576B7D
:10345000656B666B676B856B866B876B12005DA017
:1034600034EF1AF036EF1AF03EEF1AF012C00BF0FC
:1034700013C00CF011C00DF0F5EC1CF015BE45EFBB
:103480001AF043EF1AF048EF1AF0156A000E146EA6
:10349000186A000E176E56EF1AF0046A200E036EBB
:1034A00011C005F086EC19F0174A182A1450175C61
:1034B0001850800A166E1550800A1658D8A063EF6F
:1034C0001AF065EF1AF04DEF1AF05DB06AEF1AF0DE
:1034D0006CEF1AF074EF1AF012C00BF013C00CF07E
:1034E00011C00DF0F5EC1CF01200200E036EA10EC1
:1034F000046E070E056E000E066E86EF1AF014ECD1
:1035000015F00306000E045A055A065AFDEC1DF08C
:103510000009D8B48EEF1AF090EF1AF09BEF1AF072
:103520000350041005100610D8A499EF1AF09BEF71
:103530001AF07FEF1AF00350041005100610D8A4FB
:10354000A4EF1AF0A6EF1AF0B5EF1AF022EC1FF074
:10355000680E026EE40EE82EFED7022EFCD700D0D5
:10356000FFEC1BF0000EB6EF1AF0010E12000B6A12
:10357000000E0C6E000E0D6E000E0E6E036A680ECD
:10358000026E0B0E046E066A010E056E0C0E076EBF
:10359000096A030E086E28EC1CF00009D8A4D3EFCA
:1035A0001AF0D5EF1AF0D8EF1AF0000EF7EF1AF074
:1035B00075EC1AF00009D8A4E0EF1AF0E2EF1AF067
:1035C000E4EF1AF0D5EF1AF00C507F0B01EC1FF06E
:1035D0000001F36F0D507F0B01EC1FF00001F16F44
:1035E0000E503F0B01EC1FF00001F26F010E1200B4
:1035F000066A000E056E03500410D8B402EF1BF0EB
:1036000004EF1BF02CEF1BF0010E076E0CEF1BF00C
:10361000D89003360436072A04AE11EF1BF013EFDF
:103620001BF008EF1BF0D890053606360350015CFE
:1036300004500258D8A01FEF1BF021EF1BF026EF1B
:103640001BF00350015E0450025A0580D8900432EA
:103650000332072E13EF1BF005C001F006C002F085
:1036600012003D01E96BEB6BEC6BED6BEE6BEF6BFE
:10367000F06BF16BB00EF26F800EF36F080EF46F0B
:10368000820EF56F060EF66F2E0EF76FF86B800E3A
:10369000F96FFA6B000E016E000E026E000E036EE3
:1036A000A1EC1EF0000E016E000E026E000E036E05
:1036B00090EC1EF0000E016E000E026E000E036E06
:1036C0007FEC1EF00001EB6B000EEA6F1200196E2A
:1036D0004AEC1FF0050E186E0F0E176EF10EE82E55
:1036E000FED7172EFCD7182EFAD7000015C00CF005
:1036F00016C00DF01950A6EC17F00009D8A483EFFE
:103700001BF085EF1BF087EF1BF09CEF1BF00CEC20
:103710001FF00009D8B48FEF1BF091EF1BF087EF7B
:103720001BF0000ECCBA010E1A6E3A01679B3901EC
:10373000A09F908F03000000120003500410D8B423
:10374000A4EF1BF0A6EF1BF0CAEF1BF0010E056EF5
:10375000AEEF1BF0D89003360436052A04AEB3EF63
:103760001BF0B5EF1BF0AAEF1BF00350015C0450F7
:103770000258D8A0BEEF1BF0C0EF1BF0C4EF1BF047
:103780000350015E0450025AD89004320332052ED1
:10379000B5EF1BF001C001F002C002F012003D01C4
:1037A000D46BD66BD86BB00EDA6F800EDB6FDC6B30
:1037B000820EDD6F060EDE6F2E0EDF6FE06B800E69
:1037C000E16FE26B000E016E000E026E000E036EE2
:1037D0006EEC1EF0000E016E000E026E000E036E07
:1037E0005DEC1EF0000E016E000E026E000E036E08
:1037F0004CEC1EF00001ED6B000EEC6F1200040E9D
:103800003D01736F800E746F080E756F030E7B6F32
:10381000796B7A6B766B6C6B510E3A015A6F510E65
:103820005B6F3D01738F050EE82EFED70000000090
:10383000000000000000000000003D017991799532
:10384000000E0001D36F000ED46F000ED56F120072
:103850000A6AFDEC1DF00009D8A431EF1CF033EF2B
:103860001CF04CEF1CF0010E4E6E02C04FF003C076
:1038700050F0010E576E04C051F005C052F006C062
:1038800053F007C054F008C055F009C056F0586A0C
:1038900031EC1DF0010E0A6E0A501200D29A390165
:1038A000A191D280000E016E000E026E000E036E1A
:1038B00043EC1FF03901A591D282000E016E000E7B
:1038C000026E000E036E3CEC1FF03901A79BD28400
:1038D000000E016E000E026E000E036E35EC1FF03E
:1038E0001200076AFDEC1DF00009D8A47AEF1CF065
:1038F0007CEF1CF092EF1CF0010E4E6E02C04FF0F8
:1039000003C050F0576A04C051F005C052F006C021
:1039100053F0546A566A000E556E586A31EC1DF029
:10392000010E076E075012002FC031F0A0EF1CF0FF
:103930002EC025F0310E266E30C027F0EBEC12F0D1
:103940006000C7F0F6FF200EF76E000EF86E08005C
:10395000F5500009D8A4AFEF1CF0B1EF1CF098EFC0
:103960001CF02F6A000E2E6E1200C386C388C38A15
:10397000C38CC38E3A0150975099509B509D509FD5
:1039800051875189518B518D518F56875689568B4E
:10399000568D568F55975599559B559D559F576BED
:1039A0003901A09F908FD28E1200E9EF1CF026EC17
:1039B0001EF00009D8B4DFEF1CF0E1EF1CF0D7EFE8
:1039C0001CF00250D96EDA6ADF50016E55EC1FF020
:1039D000022A0250D96EDA6ADF50D8A4F2EF1CF046
:1039E000F4EF1CF0D7EF1CF01200106A000E0F6EFF
:1039F00003EF1DF00EC003F0046A0DC005F086EC65
:103A000019F00F4A102A0F500B24D96E10500C20B9
:103A1000DA6EDF500E6E0E50D8A411EF1DF013EFCA
:103A20001DF0FAEF1CF01200096E09C00AF008C080
:103A30000BF0036A680E026E0A0E046E066A020E2E
:103A4000056E71EC1CF00009D8A429EF1DF02BEFD6
:103A50001DF02EEF1DF0000E30EF1DF075EC1AF08A
:103A6000120052505310D8B438EF1DF03AEF1DF049
:103A700047EF1DF060004BF16CFD5750D8B443EF99
:103A80001DF045EF1DF047EF1DF03D01738D4F50C8
:103A90004F243D016E6F738B12003E01C18FC151E7
:103AA000FC0B0109C16FC1AD58EF1DF05AEF1DF0BD
:103AB00053EF1DF0F8893F0EFF6FF00EFD170F0E4C
:103AC000FD173E0EF16FF851F30B0409F86FF88FF4
:103AD000120000EE00F1200EEE6AE806FDE100EEB5
:103AE000B5F03F0EEE6AE806FDE100EE4EF0110E75
:103AF000EE6AE806FDE1080ED56E000ED66E000EE9
:103B0000D76E00016FEF10F008BE89EF1DF08BEF4C
:103B10001DF091EF1DF007C007F008C008F09DEF01
:103B20001DF007C009F008C00AF0091E0A1E094A64
:103B30000A2A09C007F00AC008F012000B6E0BC079
:103B400001F0026A046A0A0E036E2FEC19F001C03C
:103B500009F002C00AF00BC001F0026A046A0A0E02
:103B6000036E74EC18F00138F00B09101200340EDB
:103B7000426E32C043F0466A000E456E4D6A000E3A
:103B80004C6E430E2E6E33C02FF0420E306E94EC0E
:103B90001CF032504524D96EDA6ADF6A12003D010A
:103BA000796B769B769D7699786B7885739F738F0A
:103BB000050EE82EFED70000000000000000000007
:103BC000000000003D017991799512003E0E3E0102
:103BD000F16F350EE82EFED700003E01F881F8B1F6
:103BE000F4EF1DF0F6EF1DF0EFEF1DF0F051036E56
:103BF000EF51016E03C002F01200010E016E4E5033
:103C0000D8A405EF1EF007EF1EF010EF1EF03D01E7
:103C100077AF0DEF1EF00FEF1EF010EF1EF0016AF0
:103C200001501200016A3D01DFAB19EF1EF01BEFDE
:103C30001EF024EF1EF0DAAB20EF1EF022EF1EF094
:103C400024EF1EF0010E016E01501200016A3D01C9
:103C5000F7AB2DEF1EF02FEF1EF038EF1EF0F2AB9A
:103C600034EF1EF036EF1EF038EF1EF0010E016E3D
:103C70000150120055505610D8B441EF1EF043EFDA
:103C80001EF046EF1EF0600057F16CFDD8804F34F7
:103C90003D016E6F738B1200015002100310D8B4F7
:103CA00054EF1EF056EF1EF05CEF1EF001C0C1F0A5
:103CB00002C0C2F003C0C3F0120001500210031092
:103CC000D8B465EF1EF067EF1EF06DEF1EF001C077
:103CD000C4F002C0C5F003C0C6F0120001500210CB
:103CE0000310D8B476EF1EF078EF1EF07EEF1EF0D2
:103CF00001C0C7F002C0C8F003C0C9F012000150F3
:103D000002100310D8B487EF1EF089EF1EF08FEF7A
:103D10001EF001C0B8F002C0B9F003C0BAF0120042
:103D2000015002100310D8B498EF1EF09AEF1EF065
:103D3000A0EF1EF001C0BBF002C0BCF003C0BDF09C
:103D40001200015002100310D8B4A9EF1EF0ABEF1F
:103D50001EF0B1EF1EF001C0BEF002C0BFF003C004
:103D6000C0F01200026E12EC1EF00009D8B4BBEFD6
:103D70001EF0BDEF1EF0B3EF1EF0025050EC1FF02E
:103D80001200B888B9501F0B4009B96E0F0EB91256
:103D9000FC0EB76EB66A3901938FA39FB88E1200DE
:103DA0004E6A000E506E4F68516A546A3D01796B3D
:103DB000769B769D7699786B788512002CEC1FF0B7
:103DC000DCEC19F0FFEC1BF031EC1BF0CFEC1BF03E
:103DD0004EEC1CF01200330E396E000E2E6E32C007
:103DE0002FF0390E306E94EC1CF012003D01F7A359
:103DF000FCEF1EF0FFEF1EF0010E00EF1FF0000EB3
:103E00001200026E02C001F00F0E011602380F0BF5
:103E10000A0DF350012412003D01E1BF12EF1FF023
:103E200015EF1FF0010E16EF1FF0000E1200C48AEE
:103E30003A01609B618B679B668B659B3901A09FF4
:103E4000908F12003D01736B746B756B7B6B796B9C
:103E50007A6B766B6C6B1200600E3901D96FDB6B7D
:103E6000DD6B080EDF6FDE6B120001C0CAF002C00E
:103E7000CBF003C0CCF0120001C0CDF002C0CEF0F8
:103E800003C0CFF0120001C0D0F002C0D1F003C0D7
:103E9000D2F01200000E086E0F0E14EC1DF012008E
:103EA000016E600007F0D2FD1200600007F0EAFD2D
:0E3EB00012003D01E8511200B7EC1AF01200AA
:020000040030CA
:0A0000008FDF37EF9FFFFFFFFFFFC8
:00000001FF
