:040000000DEF00F010
:04000800F7EF14F00A
:06001800FF0077EF1AF073
:1020000000842F0000000000000090370000000056
:10201000403500000000000000000000000000004B
:1020200000000000000000000000000000000000B0
:102030000000000000000000000000000038360032
:10204000163600F435000000004354524C3A253057
:10205000325820535441543A253032582052433597
:102060003A25750D0A0054696D653A2025303275A0
:102070003A253032753A253032750D0A0044533313
:102080003233312072656164206661696C65640D6C
:102090000A00536C656570696E670068656C6C6FEB
:1020A0000000416A000E406E436A000E426E456AAF
:1020B000000E446E476A000E466E4F6A010E486E6F
:1020C000516A250E506E49684A6A67EC1BF015ECA0
:1020D0001AF03901D1833A01406B506B706BC580A7
:1020E000C594C596709170957097C290BA90BD8452
:1020F000BD86586A576A566A3CEC1BF09BEC19F097
:102100008AEC1BF0BDEC1BF0050E3F6E0F0E3E6E11
:10211000F10EE82EFED73E2EFCD73F2EFAD7000058
:10212000D28E000E0C6E000E0D6E000E0CEC19F02F
:10213000CCEC1BF04A50D8A4A0EF10F0A2EF10F0A6
:10214000B2EF10F05B503C0D6F00CCFF3EF06F0023
:10215000D0FF3FF05A503E244B6E000E3F204C6E95
:10216000010E4A6E5B503C0D6F00CCFF3EF06F00DD
:10217000D0FF3FF05A503E244D6E000E3F204E6E71
:102180004B504D5C4E50800A3E6E4C50800A3E587B
:10219000D8B0CDEF10F0CFEF10F0D3EF10F0A00ECD
:1021A0004D26050E4E224B504D5C3E6E4C504E5807
:1021B0003F6E3FBEE4EF10F03F5008E13E04D8A070
:1021C000E4EF10F0E6EF10F0F8EF10F09B0E026E67
:1021D00090EC18F05B503C0D6F00CCFF3EF06F00B0
:1021E000D0FF3FF05A503E244B6E000E3F204C6E05
:1021F00059504918D8B4FFEF10F001EF11F010EF6B
:1022000011F059C049F0660E366E5BC037F0386A7F
:102210005AC039F03A6A59C03BF03C6A5AEC1BF09C
:102220005B504F5CD8A017EF11F019EF11F02BEFB6
:1022300011F04F505B18D8A420EF11F022EF11F0ED
:1022400098EF10F048505A5CD8A029EF11F02BEF0E
:1022500011F098EF10F051505B5CD8A032EF11F004
:1022600034EF11F046EF11F051505B18D8A43BEF5A
:1022700011F03DEF11F098EF10F050505A5CD8B0CB
:1022800044EF11F046EF11F098EF10F0BD94920E6C
:10229000366E5AEC1BF050C015F0000E166E515001
:1022A000F8EC17F0BD8498EF10F00DEF00F03D0151
:1022B00076B95DEF11F05FEF11F06DEF11F076BBC5
:1022C00064EF11F066EF11F06DEF11F076AD6BEF8A
:1022D00011F06DEF11F0D0EF11F076AB72EF11F05D
:1022E00074EF11F07DEF11F0030E00016A6F3D01F4
:1022F000769B4AEC1AF0CCEF11F077B782EF11F031
:1023000084EF11F09DEF11F074AB89EF11F08BEFBA
:1023100011F09DEF11F0010E00016A6F3D017699F9
:10232000739D6C51D8B497EF11F099EF11F0CCEF89
:1023300011F06C6B6B6BCCEF11F077A7A2EF11F083
:10234000A4EF11F0BBEF11F074ABA9EF11F0ABEFFC
:1023500011F0BBEF11F0020E00016A6F3D0176999A
:10236000739D6C51D8B4B7EF11F0B9EF11F0CCEF09
:1023700011F099EF11F076ADC0EF11F0C2EF11F04E
:10238000CBEF11F0030E00016A6F3D01769D4BEC1F
:102390001BF0CCEF11F0769900016A5153EF12F067
:1023A00079B5D5EF11F0D7EF11F0E5EF11F079BF66
:1023B000DCEF11F0DEEF11F0E5EF11F079A3E3EFC0
:1023C00011F0E5EF11F031EF12F03901A2AFEBEFB0
:1023D00011F0EDEF11F0F5EF11F000016651D96E3B
:1023E000DA6A6F00ABF5DFFF662B3D0179A5FBEFE5
:1023F00011F0FDEF11F001EF12F04BEC1BF053EF79
:1024000012F079AF06EF12F008EF12F027EF12F09A
:1024100000016951D8B40FEF12F011EF12F019EF6B
:1024200012F0696B3D017991799FB4EC1AF053EF8A
:1024300012F03D01739D6C51D8B421EF12F023EFDF
:1024400012F0FDEF11F06C6B6B6BFDEF11F079A3E7
:102450002CEF12F02EEF12F053EF12F0799353EFAE
:1024600012F03901A2AF37EF12F039EF12F043EF5B
:1024700012F000016651D96EDA6A6F00ABF5DFFF2A
:10248000662B53EF12F0A3A148EF12F04AEF12F0BF
:1024900053EF12F000016351D96EDA6ADF503D014B
:1024A0006B6F0001632B12002950D96EDA6A6F003E
:1024B0007FFFF6FF200EF76E000EF86E0800F55055
:1024C000250AD8A466EF12F068EF12F01FEF13F0A0
:1024D0002950D96EDA6ADF2A536A000E526E52C052
:1024E00054F000018C698D692B6A94EF12F05482CC
:1024F0002950D96EDA6ADF2A94EF12F0010E2B6EA2
:1025000094EF12F02950D96EDA6A6F007FFFF6FF60
:10251000200EF76E000EF86E0800F550300AD8B4A1
:1025200077EF12F07EEF12F02B50D8B49AEF12F042
:102530009CEF12F082EF12F029C001F02AC002F0E5
:10254000BCEC15F001C052F002C053F053BEADEF29
:1025500012F0ABEF12F0B2EF12F05480526C531E37
:10256000D8B0532A2950D96EDA6ADF50306E600035
:10257000C3F0F6FF200EF76E000EF86E0800F5505F
:10258000580AD8B4C6EF12F0C8EF12F0D9EF12F023
:102590006000C3F0F6FF200EF76E000EF86E080024
:1025A000F550750AD8A4D7EF12F0D9EF12F019EF51
:1025B00013F02A50D96EDA6A020EDF26DF5CD96E7C
:1025C000DA6A6F0078FF2CF06F0078FF2DF0295049
:1025D000D96EDA6A3028DF6E06EF13F027C01AF0E2
:1025E00028C01BF02CC01CF02DC01DF0B3EC13F064
:1025F00035EF13F027C01AF028C01BF02CC01CF0D8
:102600002DC01DF036EC13F035EF13F06000C3F071
:10261000F6FF200EF76E000EF86E0800F550580A0F
:10262000D8B4FAEF12F02D0AD8B4EEEF12F019EF89
:1026300013F02950D96EDA6ADF2A35EF13F02950EA
:10264000D96EDA6A6F007FFFF6FF200EF76E000E7C
:10265000F86E0800F550036E046A27C005F028C024
:1026600006F020EC14F019EF13F01200010E216EA9
:1026700052C022F053C023F0266A1F0E256E0001BF
:10268000C56B72EF13F02506D8A026061C500F0B61
:10269000246E0A0E24604FEF13F051EF13F055EF44
:1026A00013F0300E242657EF13F0370E2426255052
:1026B000A60FD96EDA6A600093F0DFFF216A220666
:1026C000D8A023061CC01EF01DC01FF0040E206EF3
:1026D000D8901F321E32202E68EF13F01EC01CF05F
:1026E0001FC01DF026BE7EEF13F0265009E1020E3A
:1026F000255CD8A07EEF13F080EF13F0A5EF13F068
:102700001C501D10D8A487EF13F089EF13F043EF8E
:1027100013F02150D8A48FEF13F091EF13F043EF93
:1027200013F023BE9CEF13F0235008E12204D8A03D
:102730009CEF13F09EEF13F0A5EF13F054B2A3EF4C
:1027400013F0A5EF13F043EF13F01AC012F01BC003
:1027500013F02550A60F146E22C015F023C016F0FA
:10276000C1EC16F01200010E1E6E52C01FF053C0D5
:1027700020F0226A1F0E216E0001C56BE4EF13F0FA
:102780002106D8A022062150A60FD96EDA6A1CC0F5
:1027900001F01DC002F0046A0A0E036E2EEC18F060
:1027A0000150300FDF6E1E6A1F06D8A020061CC025
:1027B00001F01DC002F0046A0A0E036E89EC17F0E6
:1027C00001C01CF002C01DF021502210D8B4EBEF64
:1027D00013F0EDEF13F012EF14F01C501D10D8A4FD
:1027E000F4EF13F0F6EF13F0C0EF13F01E50D8A47F
:1027F000FCEF13F0FEEF13F0C0EF13F020BE09EF73
:1028000014F0205008E11F04D8A009EF14F00BEFDA
:1028100014F012EF14F054B210EF14F012EF14F0A1
:10282000C0EF13F01AC012F01BC013F02150A60F16
:10283000146E1FC015F020C016F0C1EC16F0120087
:1028400005500610D8B427EF14F029EF14F032EF3A
:1028500014F005500610D8A430EF14F032EF14F045
:1028600037EF14F003502DEC1BF08BEF14F020EE3B
:1028700009F00550D9260650DA22DE50DE10D8B411
:1028800044EF14F046EF14F061EF14F020EE09F07D
:102890000550D9260650DA2210EE02F00550E12646
:1028A0000650E222DE50E65CE650800A0B6EDE50F7
:1028B000800A0B58D8B05FEF14F061EF14F08BEF83
:1028C00014F020EE02F00550D9260650DA226F00EF
:1028D00078FF07F06F0074FF08F0600017F0D9FF71
:1028E00060001BF0DAFF6F0078FF09F06F0074FFE3
:1028F0000AF007500924D96E08500A20DA6E6000E9
:102900000FF0DFFF20EE02F00550D9260650DA2244
:10291000DE2A000EDD2212000F6E000E086E0E0E73
:10292000F8EC19F00009D8A498EF14F09AEF14F01D
:102930009DEF14F0000EF6EF14F0D00E0E6ECA0EDE
:10294000E82EFED70E2EFCD7000E086E0F0EF8EC08
:1029500019F00009D8A4AFEF14F0B1EF14F0B3EF01
:1029600014F09AEF14F0D00E0E6ECA0EE82EFED7B9
:102970000E2EFCD7070E106E0D5031EC1AF0116EB2
:102980000C5031EC1AF0126E0F5031EC1AF0136E3D
:10299000800E146E036A680E026E100E046E066AD4
:1029A000050E056E31EC19F00009D8A4DAEF14F029
:1029B000DCEF14F0DEEF14F09AEF14F009EC17F0EE
:1029C0000009D8A4E6EF14F0E8EF14F0EAEF14F0F1
:1029D0009AEF14F0D00E0E6ECA0EE82EFED70E2E11
:1029E000FCD7050E086E0E0EF8EC19F01200390136
:1029F000A3AFFDEF14F0FFEF14F006EF15F0A39F67
:102A0000FE0EB76EB66A572A010E556EA0AF0BEFD9
:102A100015F00DEF15F05BEF15F03A0157A713EF26
:102A200015F015EF15F01AEF15F057970001A16B8F
:102A3000010EA06F3A0157A920EF15F022EF15F013
:102A400027EF15F0579900019F6B010E9E6F3A0119
:102A500057AB2DEF15F02FEF15F034EF15F0579B16
:102A600000019D6B010E9C6F3A0157AD3AEF15F0D6
:102A70003CEF15F041EF15F0579D00019B6B010EE7
:102A80009A6F3A0157AF47EF15F049EF15F04EEF47
:102A900015F0579F0001996B010E986F3A0167ABD3
:102AA00054EF15F056EF15F059EF15F0679B010E36
:102AB0005C6E3901A09F1100066A04BE64EF15F038
:102AC00062EF15F06AEF15F0036C041ED8B0042A0B
:102AD000010E066E02BE71EF15F06FEF15F077EF85
:102AE00015F0016C021ED8B0022A010E061A086AFF
:102AF000000E076E03500410D8B481EF15F083EF79
:102B000015F0ABEF15F0010E056E8BEF15F0D890B8
:102B100003360436052A04AE90EF15F092EF15F057
:102B200087EF15F0D890073608360350015C045043
:102B30000258D8A09EEF15F0A0EF15F0A5EF15F004
:102B40000350015E0450025A0780D89004320332C9
:102B5000052E92EF15F00650D8B4B1EF15F0B3EF93
:102B600015F0B7EF15F0076C081ED8B0082A07C09B
:102B700001F008C002F01200076A000E066E015054
:102B8000D96EDA6A6F007FFFF6FF200EF76E000E37
:102B9000F86E0800F5502A0AD8A4D1EF15F0D3EF4B
:102BA00015F0FCEF15F00150D96EDA6ADF2A0250F9
:102BB000D96EDA6A020EDF26DF5CD96EDA6A6F0040
:102BC00078FF06F06F0078FF07F012EF16F00A0E9C
:102BD00006026F00CCFF03F06F00D0FF04F0070285
:102BE000F350042605500324066E000E0420076EE1
:102BF0000150D96EDA6ADF2A0150D96EDA6A6F00A5
:102C00007FFFF6FF200EF76E000EF86E0800F550FD
:102C1000D00F056E090E056410EF16F012EF16F0D6
:102C2000E7EF15F006C001F007C002F01200066AD7
:102C300002BE1FEF16F01DEF16F025EF16F0016C27
:102C4000021ED8B0022A010E066E04BE2CEF16F04A
:102C50002AEF16F030EF16F0036C041ED8B0042AE9
:102C600003500410D8B437EF16F039EF16F05DEFCB
:102C700016F0010E056E41EF16F0D89003360436BB
:102C8000052A04AE46EF16F048EF16F03DEF16F0B9
:102C90000350015C04500258D8A051EF16F053EFD6
:102CA00016F057EF16F00350015E0450025AD89008
:102CB00004320332052E48EF16F00650D8B463EF05
:102CC00016F065EF16F069EF16F0016C021ED8B031
:102CD000022A01C001F002C002F01200BA6A060E18
:102CE000BB6EBC6ABD6ABE6A3A01426B060E526F89
:102CF000626B726B826BC268F90EC36EFB0EC46EA0
:102D0000FE0EC56E070EC66E4069F90E506FF30ECB
:102D1000606FFC0E706F070E806F416B516B616BC3
:102D2000716B816B4369536963697369070E836FC4
:102D300044695469646974690F0E846F5A6B5B6BE4
:102D40006A6B6B6B7A6B7B6B190EE86F130EE56F1A
:102D5000160E186F130E126F090EE16F210E096F18
:102D60000A0EE26F220E0A6F456B466B476B556B7E
:102D7000566B576B656B666B676B856B866B876B8A
:102D8000120054A0C6EF16F0C8EF16F0D0EF16F000
:102D900014C00CF012C00DF013C00EF0BBEC19F013
:102DA00016BED7EF16F0D5EF16F0DAEF16F0166A6A
:102DB000000E156E196A000E186EEAEF16F0046A1E
:102DC000200E036E12C005F013C006F020EC14F0C4
:102DD000184A192A1550185C1950800A176E165097
:102DE000800A1758D8A0F7EF16F0F9EF16F0DFEFCA
:102DF00016F054B0FEEF16F000EF17F008EF17F0E2
:102E000014C00CF012C00DF013C00EF0BBEC19F0A2
:102E10001200200E036EA10E046E070E056E000E4A
:102E2000066E1AEF17F057EC11F00306000E045A65
:102E3000055A065A61EC1AF00009D8B422EF17F0CF
:102E400024EF17F02FEF17F00350041005100610B1
:102E5000D8A42DEF17F02FEF17F013EF17F0035052
:102E6000041005100610D8A438EF17F03AEF17F049
:102E700049EF17F095EC1BF0680E026EE40EE82E99
:102E8000FED7022EFCD700D0BCEC18F0000E4AEFA3
:102E900017F0010E12000B6A000E0C6E000E0D6E84
:102EA000000E0E6E036A680E026E0B0E046E066A4A
:102EB000010E056E0C0E076E096A030E086EE5EC36
:102EC00018F00009D8A467EF17F069EF17F06CEF5E
:102ED00017F0000E88EF17F009EC17F00009D8A4DE
:102EE00074EF17F076EF17F078EF17F069EF17F03F
:102EF0000C507F0B74EC1BF0596E0D507F0B74EC73
:102F00001BF05A6E0E503F0B74EC1BF05B6E010E03
:102F10001200066A000E056E03500410D8B493EF39
:102F200017F095EF17F0BDEF17F0010E076E9DEF4C
:102F300017F0D89003360436072A04AEA2EF17F034
:102F4000A4EF17F099EF17F0D89005360636035026
:102F5000015C04500258D8A0B0EF17F0B2EF17F0A0
:102F6000B7EF17F00350015E0450025A0580D89065
:102F700004320332072EA4EF17F005C001F006C09B
:102F800002F012003D01E96BEB6BEC6BED6BEE6B4D
:102F9000EF6BF06BF16BB00EF26F800EF36F080EFB
:102FA000F46F820EF56F060EF66F2E0EF76FF86B4C
:102FB000800EF96FFA6B000E016E000E026E000EAD
:102FC000036E1CEC1BF0000E016E000E026E000E74
:102FD000036E0BEC1BF0000E016E000E026E000E75
:102FE000036EFAEC1AF00001A36B000EA26F120040
:102FF000196EBDEC1BF0050E186E0F0E176EF10E5C
:10300000E82EFED7172EFCD7182EFAD7000015C0D1
:103010000CF016C00DF019508CEC14F00009D8A477
:1030200014EF18F016EF18F018EF18F02DEF18F055
:103030007FEC1BF00009D8B420EF18F022EF18F055
:1030400018EF18F0000ECCBA010E1A6E3A01679B09
:103050003901A09F908F030000001200035004105C
:10306000D8B435EF18F037EF18F05BEF18F0010E19
:10307000056E3FEF18F0D89003360436052A04AEEB
:1030800044EF18F046EF18F03BEF18F00350015CE6
:1030900004500258D8A04FEF18F051EF18F055EF38
:1030A00018F00350015E0450025AD89004320332E3
:1030B000052E46EF18F001C001F002C002F0120028
:1030C0003D01D46BD66BD86BB00EDA6F800EDB6F20
:1030D000DC6B820EDD6F060EDE6F2E0EDF6FE06B97
:1030E000800EE16FE26B000E016E000E026E000EAC
:1030F000036EE9EC1AF0000E016E000E026E000E77
:10310000036ED8EC1AF0000E016E000E026E000E77
:10311000036EC7EC1AF00001A56B000EA46F12003D
:10312000AAEF18F0A0EC1AF00009D8B49AEF18F042
:103130009CEF18F092EF18F060000BF0F6FF200EF5
:10314000F76E000EF86E08006F00D4FF01F0C8ECB7
:103150001BF0022A60000BF0F6FF200EF76E000E47
:10316000F86E0800F5500009D8A4B9EF18F0BBEFCD
:1031700018F092EF18F01200040E3D01736F800EEC
:10318000746F080E756F030E7B6F796B7A6B766BBD
:103190006C6B510E3A015A6F510E5B6F3D01738F8C
:1031A000050EE82EFED70000000000000000000021
:1031B000000000003D0179917995000E0001896FB2
:1031C000000E8A6F000E8B6F12000A6A61EC1AF013
:1031D0000009D8A4EEEF18F0F0EF18F00AEF19F09C
:1031E000010E0001606F02C061F003C062F0010EC9
:1031F000696F04C063F005C064F006C065F007C0E5
:1032000066F008C067F009C068F06A6BDAEC19F084
:10321000010E0A6E0A5012000E6E0F6A0D5031EC4C
:103220001AF0106E0C5031EC1AF0116E0E5031EC99
:103230001AF0126E036A680E026E0F0E046E066AB2
:10324000040E056E31EC19F00009D8A42AEF19F02C
:103250002CEF19F02EEF19F030EF19F009EC17F000
:103260001200076A61EC1AF00009D8A43AEF19F0CD
:103270003CEF19F053EF19F0010E0001606F02C02E
:1032800061F003C062F0696B04C063F005C064F0D4
:1032900006C065F0666B686B000E676F6A6BDAECF0
:1032A00019F0010E076E0750120033C035F063EFBE
:1032B00019F031C027F032C028F0350E296E34C025
:1032C0002AF054EC12F06000D7F0F6FF200EF76EF3
:1032D000000EF86E0800F5500009D8A472EF19F03E
:1032E00074EF19F059EF19F0326A000E316E1200C6
:1032F000D29A3901A191D280000E016E000E026EA9
:10330000000E036EB6EC1BF03901A591D282000EBF
:10331000016E000E026E000E036EAFEC1BF0390161
:10332000A79BD284000E016E000E026E000E036E8B
:10333000A8EC1BF01200C386C388C38AC38CC38E5B
:103340003A0150975099509B509D509F51875189F9
:10335000518B518D518F56875689568B568D568F6E
:1033600055975599559B559D559F576B3901A09F72
:10337000908FD28E1200116A000E106ECBEF19F0F2
:103380000FC003F0046A0DC005F00EC006F020EC7B
:1033900014F0104A112A0C501024D96EDA6ADF504A
:1033A0000F6E0F50D8A4D7EF19F0D9EF19F0C0EF76
:1033B00019F01200000164516511D8B4E2EF19F060
:1033C000E4EF19F0F1EF19F0600093F16CFD695131
:1033D000D8B4EDEF19F0EFEF19F0F1EF19F03D016E
:1033E000738D0001615161253D016E6F738B120079
:1033F000096E09C00AF008C00BF0036A680E026E7D
:103400000A0E046E066A020E056E31EC19F0000910
:10341000D8A40DEF1AF00FEF1AF012EF1AF0000E09
:1034200014EF1AF009EC17F012003E01C18FC151E0
:10343000FC0B0109C16FC1AD20EF1AF022EF1AF0A9
:103440001BEF1AF0F8893F0EFF6FF00EFD170F0EFD
:10345000FD173E0EF16FF851F30B0409F86FF88F6A
:1034600012000B6E0BC001F0026A046A0A0E036EB2
:1034700017EC16F001C009F002C00AF00BC001F011
:10348000026A046A0A0E036E5CEC15F00138F00B58
:10349000091012003D01796B769B769D7699786BC9
:1034A0007885739F738F050EE82EFED7000000000D
:1034B000000000000000000000003D0179917995B6
:1034C0001200010E016E00016051D8A46AEF1AF0DB
:1034D0006CEF1AF075EF1AF03D0177AF72EF1AF04A
:1034E00074EF1AF075EF1AF0016A0150120000EE45
:1034F00060F0660EEE6AE806FDE100EE52F00B0E9B
:10350000EE6AE806FDE1080ED56E000ED66E000EDE
:10351000D76E000151EF10F0016A3D01DFAB93EF70
:103520001AF095EF1AF09EEF1AF0DAAB9AEF1AF054
:103530009CEF1AF09EEF1AF0010E016E015012007E
:10354000016A3D01F7ABA7EF1AF0A9EF1AF0B2EF4D
:103550001AF0F2ABAEEF1AF0B0EF1AF0B2EF1AF0C9
:10356000010E016E01501200000167516811D8B4BC
:10357000BCEF1AF0BEEF1AF0C1EF1AF060009FF135
:103580006CFDD88061353D016E6F738B1200015068
:1035900002100310D8B4CFEF1AF0D1EF1AF0D7EF22
:1035A0001AF001C077F002C078F003C079F0120081
:1035B000015002100310D8B4E0EF1AF0E2EF1AF055
:1035C000E8EF1AF001C07AF002C07BF003C07CF093
:1035D0001200015002100310D8B4F1EF1AF0F3EF0B
:1035E0001AF0F9EF1AF001C07DF002C07EF003C0BE
:1035F0007FF01200015002100310D8B402EF1BF04C
:1036000004EF1BF00AEF1BF001C06EF002C06FF078
:1036100003C070F01200015002100310D8B413EF71
:103620001BF015EF1BF01BEF1BF001C071F002C087
:1036300072F003C073F01200015002100310D8B4EE
:1036400024EF1BF026EF1BF02CEF1BF001C074F0F1
:1036500002C075F003C076F01200026E8CEC1AF016
:103660000009D8B436EF1BF038EF1BF02EEF1BF03B
:103670000250C3EC1BF01200B888B9501F0B400970
:10368000B96E0F0EB912FE0EB76EB66A3901938F7E
:10369000A39FB88E12000001606B000E626F61691B
:1036A000636B666B3D01796B769B769D7699786B43
:1036B00078851200370E3D6E000E316E000E326EB0
:1036C00036C033F03D0E346E55EC19F012009FEC0D
:1036D0001BF06EEC16F0BCEC18F0C2EC17F060ECCE
:1036E00018F078EC19F01200026E02C001F00F0E13
:1036F000011602380F0B0A0DF350012412003D0190
:10370000E1BF85EF1BF088EF1BF0010E89EF1BF086
:10371000000E1200C48A3A01609B618B679B668B26
:10372000659B3901A09F908F12003D01736B746BF4
:10373000756B7B6B796B7A6B766B6C6B1200600EC2
:103740003901D96FDB6BDD6B080EDF6FDE6B1200AA
:1037500001C080F002C081F003C082F0120001C0FD
:1037600083F002C084F003C085F0120001C086F02F
:1037700002C087F003C088F01200000E086E0F0E22
:10378000F8EC19F01200016E600007F0D2FD120093
:0E379000600007F0EAFD12004BEC17F012008B
:020000040030CA
:0A0000008FDF37EF9FFFFFFFFFFFC8
:00000001FF
