:040000000DEF00F010
:0400080083EF16F07C
:06001800FF00A5EF1BF044
:1020000000463300000000B43A00AC3A00043A0045
:102010006438000000000000000000000000000024
:1020200000000000000000000000000000000000B0
:10203000000000000000000000000000005A39000D
:102040003839001639000000004354524C3A25300C
:10205000325820535441543A253032582052433597
:102060003A25750D0A00476174655F30312C25648F
:102070002C25642C25642C25642C25642C25640DCA
:102080000A0054696D653A20253032753A253032A0
:10209000753A253032750D0A0044533332333120FE
:0F20A00072656164206661696C65640D0A0000F9
:1020B0000001A66B000EA56FAA6B000EA96FA86B9E
:1020C000000EA76FAB6B150EA26F070EA36FA4696E
:1020D000EAEC1CF089EC1BF03901D1833A01406B2A
:1020E000506B706BC580C594C59670917095709754
:1020F000C290BA90BD84BD860001E76BE66BE56BCC
:10210000CDEC1CF0F1EC1AF018EC1DF04BEC1DF0CE
:10211000050E0001616F0F0E606FF10EE82EFED705
:10212000602FFCD7612FFAD7D28E0001E451D8B4CA
:102130009CEF10F09EEF10F0A1EF10F0E46B5DEC5F
:102140001DF00001EA51A419D8B4A9EF10F0ABEFCB
:1021500010F0BAEF10F0EAC0A4F0820E326EE9C0BF
:1021600033F0346AE8C035F0366AEAC037F0386ACE
:10217000F7EC1CF00001E751D8A4C1EF10F0C3EF59
:1021800010F0D0EF10F0040EE665C9EF10F0CBEFC1
:1021900010F0D0EF10F0010EE56FE66B010EE76F67
:1021A000E705D8A4D6EF10F0D8EF10F0E4EF10F068
:1021B000130EE665DEEF10F0E0EF10F0E4EF10F044
:1021C000BD94E66B020EE76F020EE719D8A4EBEFA1
:1021D00010F0EDEF10F0F8EF10F03B0EE665F3EFC6
:1021E00010F0F5EF10F0F8EF10F0BD84E66BE76B40
:1021F000E551D8B4FEEF10F000EF11F023EF11F02D
:10220000E56B620E326E660E336EA5C034F0A6C06A
:1022100035F0D8C036F0D9C037F0D6C038F0D7C0C6
:1022200039F0D4C03AF0D5C03BF0D2C03CF0D3C0B6
:102230003DF0D0C03EF0D1C03FF0DAEC1BF0620EB2
:10224000026E11EC1BF002EC1DF00009D8B42BEF6C
:1022500011F02DEF11F08DEF11F05AEC1DF000018F
:10226000AC6F7EEF11F04C0EAC19D8A43AEF11F020
:102270003CEF11F08DEF11F0010EAB6F8DEF11F00F
:10228000450EAC19D8A447EF11F049EF11F04DEF0E
:1022900011F0020EAB6F8DEF11F04C0EAC19D8A4FB
:1022A00054EF11F056EF11F058EF11F03CEF11F030
:1022B000AB6B8DEF11F0440EAC19D8A462EF11F0A6
:1022C00064EF11F058EF11F0A66B000EA56FD96BFB
:1022D000000ED86FD76B000ED66FD56B000ED46F83
:1022E000D36B000ED26FD16B000ED06FAA6B000EB5
:1022F000A96FA86B010EA76F58EF11F0AB51000A40
:10230000D8B433EF11F0010AD8B440EF11F0030A4A
:10231000D8B45BEF11F058EF11F00001A705A81138
:10232000D8A495EF11F097EF11F0A7EF11F0BA9044
:10233000CDB09DEF11F09FEF11F0C3EF11F0A86B3E
:10234000000EA76FAA6B000EA96FC3EF11F0CDA00E
:10235000ACEF11F0AEEF11F0B4EF11F0BA80AA6B50
:10236000010EA96FC3EF11F0BA90A905AA11D8A464
:10237000BCEF11F0BEEF11F0C3EF11F0A54BA62B8F
:10238000AA6B000EA96FE4EC12F095EF10F00DEFC0
:1023900000F02650D96EDA6A6F007FFFF6FF200E3C
:1023A000F76E000EF86E0800F550250AD8A4DBEF92
:1023B00011F0DDEF11F0CFEF12F02650D96EDA6A8E
:1023C000DF2A586A000E576E57C05DF00001CE69D3
:1023D000CF69286A09EF12F05D822650D96EDA6A59
:1023E000DF2A09EF12F0010E286E09EF12F02650D5
:1023F000D96EDA6A6F007FFFF6FF200EF76E000ECF
:10240000F86E0800F550300AD8B4ECEF11F0F3EF95
:1024100011F02850D8B40FEF12F011EF12F0F7EFCF
:1024200011F026C001F027C002F046EC17F001C001
:1024300057F002C058F058BE22EF12F020EF12F011
:1024400027EF12F05D80576C581ED8B0582A2650DE
:10245000D96EDA6ADF502D6E6000B7F0F6FF200EFD
:10246000F76E000EF86E0800F550640AD8B43BEF22
:1024700012F03DEF12F04EEF12F06000B7F0F6FFF1
:10248000200EF76E000EF86E0800F550690AD8A409
:102490004CEF12F04EEF12F06BEF12F02750D96EA6
:1024A000DA6A020EDF26DF5CD96EDA6A6F0078FF27
:1024B00029F06F0078FF2AF02650D96EDA6A2D28AD
:1024C000DF6E25C019F029C01AF02AC01BF0DEEC1F
:1024D00014F0E3EF12F06000B7F0F6FF200EF76E95
:1024E000000EF86E0800F550580AD8B47AEF12F0D2
:1024F0007CEF12F08DEF12F06000B7F0F6FF200EC7
:10250000F76E000EF86E0800F550750AD8A48BEF30
:1025100012F08DEF12F0C9EF12F02750D96EDA6A7F
:10252000020EDF26DF5CD96EDA6A6F0078FF29F0D1
:102530006F0078FF2AF02650D96EDA6A2D28DF6EF8
:10254000B6EF12F025C019F029C01AF02AC01BF00E
:1025500013EC16F0E3EF12F025C019F029C01AF0C1
:102560002AC01BF093EC15F0E3EF12F06000B7F017
:10257000F6FF200EF76E000EF86E0800F550580AB0
:10258000D8B4ACEF12F02D0AD8B4A2EF12F0C9EF14
:1025900012F02650D96EDA6ADF2AE3EF12F02650E5
:1025A000D96EDA6A6F007FFFF6FF200EF76E000E1D
:1025B000F86E0800F550036E046A25C005F0F8ECCB
:1025C00017F0C9EF12F012005B505C10D8B4EBEFBB
:1025D00012F0EDEF12F019EF13F05C6A000E5B6E73
:1025E000030E026E700E016E5C0EE82EFED7012EF9
:1025F000FCD7022EFAD700D0CBB601EF13F003EFD1
:1026000013F019EF13F00001D84BD92BCBA60BEF29
:1026100013F00DEF13F006EF13F0030E026E700EC1
:10262000016E5C0EE82EFED7012EFCD7022EFAD7E3
:1026300000D059505A10D8B420EF13F022EF13F005
:102640004EEF13F05A6A000E596E030E026E700EB2
:10265000016E5C0EE82EFED7012EFCD7022EFAD7B3
:1026600000D0CBB836EF13F038EF13F04EEF13F085
:102670000001D64BD72BCBA840EF13F042EF13F05D
:102680003BEF13F0030E026E700E016E5C0EE82E2F
:10269000FED7012EFCD7022EFAD700D00001DE5162
:1026A000DF11D8B456EF13F058EF13F084EF13F0A6
:1026B000DF6B000EDE6F030E026E700E016E5C0E9D
:1026C000E82EFED7012EFCD7022EFAD700D0CBBAC7
:1026D0006CEF13F06EEF13F084EF13F00001D44BA6
:1026E000D52BCBAA76EF13F078EF13F071EF13F040
:1026F000030E026E700E016E5C0EE82EFED7012EE8
:10270000FCD7022EFAD700D00001DC51DD11D8B47D
:102710008CEF13F08EEF13F0BAEF13F0DD6B000EB9
:10272000DC6F030E026E700E016E5C0EE82EFED79B
:10273000012EFCD7022EFAD700D0CBBCA2EF13F0AB
:10274000A4EF13F0BAEF13F00001D24BD32BCBACB4
:10275000ACEF13F0AEEF13F0A7EF13F0030E026E21
:10276000700E016E5C0EE82EFED7012EFCD7022EF5
:10277000FAD700D00001DA51DB11D8B4C2EF13F060
:10278000C4EF13F0F0EF13F0DB6B000EDA6F030E03
:10279000026E700E016E5C0EE82EFED7012EFCD785
:1027A000022EFAD700D0CBBED8EF13F0DAEF13F039
:1027B000F0EF13F00001D04BD12BCBAEE2EF13F0D2
:1027C000E4EF13F0DDEF13F0030E026E700E016EF6
:1027D0005C0EE82EFED7012EFCD7022EFAD700D0D1
:1027E00012003D0176B9F7EF13F0F9EF13F007EFA0
:1027F00014F076BBFEEF13F000EF14F007EF14F0C7
:1028000076AD05EF14F007EF14F061EF14F076AB3E
:102810000CEF14F00EEF14F015EF14F0030E566EDB
:10282000769BF2EC1BF05EEF14F077B71AEF14F022
:102830001CEF14F033EF14F074AB21EF14F023EF1E
:1028400014F033EF14F0010E566E7699739D6C51AF
:10285000D8B42DEF14F02FEF14F05EEF14F06C6B82
:102860006B6B5EEF14F077A738EF14F03AEF14F0CB
:102870004FEF14F074AB3FEF14F041EF14F04FEF53
:1028800014F0020E566E7699739D6C51D8B44BEFCE
:1028900014F04DEF14F05EEF14F02FEF14F076AD5E
:1028A00054EF14F056EF14F05DEF14F0030E566E73
:1028B000769DDCEC1CF05EEF14F076995650DDEF5F
:1028C00014F079B566EF14F068EF14F076EF14F0B9
:1028D00079BF6DEF14F06FEF14F076EF14F079A379
:1028E00074EF14F076EF14F0BEEF14F03901A2AFDC
:1028F0007CEF14F07EEF14F085EF14F05250D96E97
:10290000DA6A6F00ABF5DFFF522A3D0179A58BEF44
:1029100014F08DEF14F091EF14F0DCEC1CF0DDEF0F
:1029200014F079AF96EF14F098EF14F0B4EF14F0C0
:102930005550D8B49EEF14F0A0EF14F0A7EF14F0A8
:10294000556A7991799F46EC1CF0DDEF14F0739D88
:102950006C51D8B4AEEF14F0B0EF14F08DEF14F06A
:102960006C6B6B6B8DEF14F079A3B9EF14F0BBEFC8
:1029700014F0DDEF14F07993DDEF14F03901A2AF1C
:10298000C4EF14F0C6EF14F0CFEF14F05250D96E2C
:10299000DA6A6F00ABF5DFFF522ADDEF14F0A3A176
:1029A000D4EF14F0D6EF14F0DDEF14F04F50D96EE1
:1029B000DA6ADF503D016B6F4F2A1200010E1E6E66
:1029C0001BBEE5EF14F0E8EF14F0010EE9EF14F090
:1029D000000E216E57C01FF058C020F02150D8B40F
:1029E000F4EF14F0F6EF14F00BEF15F01F06D8A07B
:1029F00020062150D8A4FFEF14F001EF15F006EFE8
:102A000015F01D6A2B0E1C6E09EF15F01D6A2D0EB8
:102A10001C6E1CC021F0236A1F0E226E01011F6B69
:102A20003EEF15F02206D8A02306000E2224D96E10
:102A3000010E2320DA6E1AC001F01BC002F0046AF6
:102A40000A0E036EA1EC17F001C007F002C008F0F7
:102A5000C0EC1BF00750300FDF6E1E6A1F06D8A0B7
:102A600020061AC001F01BC002F0046A0A0E036EB1
:102A7000E6EC16F001C01AF002C01BF023BE49EFCD
:102A800015F0235008E12204D8A049EF15F04BEFD0
:102A900015F070EF15F01A501B10D8A452EF15F076
:102AA00054EF15F012EF15F01E50D8A45AEF15F0A0
:102AB0005CEF15F012EF15F020BE67EF15F0205017
:102AC00008E11F04D8A067EF15F069EF15F070EF6B
:102AD00015F05DB26EEF15F070EF15F012EF15F016
:102AE0002150D8B476EF15F078EF15F084EF15F09B
:102AF0002206D8A02306000E2224D96E010E232020
:102B0000DA6E600087F0DFFF19C011F0000E22249A
:102B1000126E010E2320136E1FC014F020C015F09A
:102B2000A1EC18F01200010E1F6E57C020F058C023
:102B300021F0246A1F0E236E01011F6BD1EF15F0E7
:102B40002306D8A024061A500F0B226E0A0E22600C
:102B5000ACEF15F0AEEF15F0B2EF15F0300E222607
:102B6000B4EF15F0370E2226000E2324D96E010E85
:102B70002420DA6E60008BF0DFFF1F6A2006D8A0E9
:102B800021061AC01CF01BC01DF0040E1E6ED8904A
:102B90001D321C321E2EC7EF15F01CC01AF01DC0CE
:102BA0001BF024BEDDEF15F0245009E1020E235C7A
:102BB000D8A0DDEF15F0DFEF15F004EF16F01A5096
:102BC0001B10D8A4E6EF15F0E8EF15F0A0EF15F014
:102BD0001F50D8A4EEEF15F0F0EF15F0A0EF15F0B0
:102BE00021BEFBEF15F0215008E12004D8A0FBEF37
:102BF00015F0FDEF15F004EF16F05DB202EF16F0E0
:102C000004EF16F0A0EF15F019C011F0000E232408
:102C1000126E010E2420136E20C014F021C015F096
:102C2000A1EC18F01200010E1C6E57C01DF058C028
:102C30001EF0206A1F0E1F6E01011F6B46EF16F07B
:102C40001F06D8A02006000E1F24D96E010E2020DA
:102C5000DA6E1AC001F01BC002F0046A0A0E036E9D
:102C6000D9EC19F00150300FDF6E1C6A1D06D8A098
:102C70001E061AC001F01BC002F0046A0A0E036EA1
:102C80006AEC19F001C01AF002C01BF01F502010AE
:102C9000D8B44DEF16F04FEF16F074EF16F01A504F
:102CA0001B10D8A456EF16F058EF16F020EF16F0D0
:102CB0001C50D8A45EEF16F060EF16F020EF16F06F
:102CC0001EBE6BEF16F01E5008E11D04D8A06BEF7E
:102CD00016F06DEF16F074EF16F05DB272EF16F0AD
:102CE00074EF16F020EF16F019C011F0000E1F243B
:102CF000126E010E2020136E1DC014F01EC015F0C0
:102D0000A1EC18F012003901A3AF89EF16F08BEF98
:102D100016F093EF16F0A39FFE0EB76EB66A000191
:102D2000E62B010EE46F3901A0AF99EF16F09BEF8F
:102D300016F0E5EF16F03A0157A7A1EF16F0A3EF52
:102D400016F0A7EF16F057975C6A010E5B6E57A955
:102D5000ACEF16F0AEEF16F0B2EF16F057995A6AD4
:102D6000010E596E57ABB7EF16F0B9EF16F0BEEF84
:102D700016F0579B0001DF6B010EDE6F3A0157AD75
:102D8000C4EF16F0C6EF16F0CBEF16F0579D00011A
:102D9000DD6B010EDC6F3A0157AFD1EF16F0D3EFC8
:102DA00016F0D8EF16F0579F0001DB6B010EDA6FBB
:102DB0003A0167ABDEEF16F0E0EF16F0E3EF16F046
:102DC000679B010E5E6E3901A09F1100066A04BE6A
:102DD000EEEF16F0ECEF16F0F4EF16F0036C041EB5
:102DE000D8B0042A010E066E02BEFBEF16F0F9EF12
:102DF00016F001EF17F0016C021ED8B0022A010E86
:102E0000061A086A000E076E03500410D8B40BEFC0
:102E100017F00DEF17F035EF17F0010E056E15EFF7
:102E200017F0D89003360436052A04AE1AEF17F0CF
:102E30001CEF17F011EF17F0D89007360836035043
:102E4000015C04500258D8A028EF17F02AEF17F0C1
:102E50002FEF17F00350015E0450025A0780D890FC
:102E600004320332052E1CEF17F00650D8B43BEFA6
:102E700017F03DEF17F041EF17F0076C081ED8B0C0
:102E8000082A07C001F008C002F01200076A000E0D
:102E9000066E0150D96EDA6A6F007FFFF6FF200ED2
:102EA000F76E000EF86E0800F5502A0AD8A45BEF02
:102EB00017F05DEF17F086EF17F00150D96EDA6A60
:102EC000DF2A0250D96EDA6A020EDF26DF5CD96E85
:102ED000DA6A6F0078FF06F06F0078FF07F09CEF6A
:102EE00017F00A0E06026F00CCFF03F06F00D0FF50
:102EF00004F00702F350042605500324066E000E6A
:102F00000420076E0150D96EDA6ADF2A0150D96EAB
:102F1000DA6A6F007FFFF6FF200EF76E000EF86E84
:102F20000800F550D00F056E090E05649AEF17F0F2
:102F30009CEF17F071EF17F006C001F007C002F028
:102F40001200066A02BEA9EF17F0A7EF17F0AFEF65
:102F500017F0016C021ED8B0022A010E066E04BEE4
:102F6000B6EF17F0B4EF17F0BAEF17F0036C041ECA
:102F7000D8B0042A03500410D8B4C1EF17F0C3EF3F
:102F800017F0E7EF17F0010E056ECBEF17F0D890B2
:102F900003360436052A04AED0EF17F0D2EF17F04F
:102FA000C7EF17F00350015C04500258D8A0DBEFC4
:102FB00017F0DDEF17F0E1EF17F00350015E04505A
:102FC000025AD89004320332052ED2EF17F0065081
:102FD000D8B4EDEF17F0EFEF17F0F3EF17F0016C47
:102FE000021ED8B0022A01C001F002C002F0120095
:102FF0000550D8B4FEEF17F000EF18F008EF18F006
:103000000550D8A406EF18F008EF18F00DEF18F0EF
:103010000350BEEC1CF04DEF18F00550D96EDA6A83
:10302000090ED926DE50DE10D8B419EF18F01BEFC8
:1030300018F034EF18F00550D96EDA6A090ED92667
:103040000550E16EE26A020EE126DE50E65CE650D3
:10305000800A0A6EDE50800A0A58D8B032EF18F0A3
:1030600034EF18F04DEF18F00550D96EDA6A020E01
:10307000D926DF50066E0550D96EDA6ADF50062475
:10308000D96EDA6A60000FF0DFFF0550D96EDA6A98
:10309000020ED926DE2A000EDD221200BA6A060EC2
:1030A000BB6EBC6ABD6ABE6A3A01426B060E526FC5
:1030B000626B726B826BC268F90EC36EFB0EC46EDC
:1030C000FE0EC56E070EC66E4069F90E506FF30E08
:1030D000606FFC0E706F070E806F416B516B616B00
:1030E000716B816B4369536963697369070E836F01
:1030F00044695469646974690F0E846F5A6B5B6B21
:103100006A6B6B6B7A6B7B6B190EE86F130EE56F56
:10311000160E186F130E126F090EE16F210E096F54
:103120000A0EE26F220E0A6F456B466B476B556BBA
:10313000566B576B656B666B676B856B866B876BC6
:1031400012005DA0A6EF18F0A8EF18F0B0EF18F08D
:1031500012C00BF013C00CF011C00DF031EC1BF0DD
:1031600015BEB7EF18F0B5EF18F0BAEF18F0156A02
:10317000000E146E186A000E176EC8EF18F0046A7D
:10318000200E036E11C005F0F8EC17F0174A182A4C
:103190001450175C1850800A166E1550800A165885
:1031A000D8A0D5EF18F0D7EF18F0BFEF18F05DB04A
:1031B000DCEF18F0DEEF18F0E6EF18F012C00BF0BD
:1031C00013C00CF011C00DF031EC1BF01200200EFA
:1031D000036EA10E046E070E056E000E066EF8EF6C
:1031E00018F0F1EC13F00306000E045A055A065AC3
:1031F00009EC1CF00009D8B400EF19F002EF19F047
:103200000DEF19F00350041005100610D8A40BEFB1
:1032100019F00DEF19F0F1EF18F00350041005103C
:103220000610D8A416EF19F018EF19F027EF19F0CF
:1032300023EC1DF0680E026EE40EE82EFED7022E7F
:10324000FCD700D03BEC1AF0000E28EF19F0010E6D
:1032500012000B6A000E0C6E000E0D6E000E0E6E4C
:10326000036A680E026E0B0E046E066A010E056E8E
:103270000C0E076E096A030E086E64EC1AF0000962
:10328000D8A445EF19F047EF19F04AEF19F0000EF6
:1032900069EF19F0E7EC18F00009D8A452EF19F023
:1032A00054EF19F056EF19F047EF19F00C507F0B5F
:1032B0000DEC1DF00001EA6F0D507F0B0DEC1DF0C1
:1032C0000001E86F0E503F0B0DEC1DF00001E96F9F
:1032D000010E1200066A000E056E03500410D8B4E9
:1032E00074EF19F076EF19F09EEF19F0010E076EEA
:1032F0007EEF19F0D89003360436072A04AE83EF28
:1033000019F085EF19F07AEF19F0D89005360636E6
:103310000350015C04500258D8A091EF19F093EFCC
:1033200019F098EF19F00350015E0450025A05801D
:10333000D89004320332072E85EF19F005C001F052
:1033400006C002F012003D01E96BEB6BEC6BED6B1C
:10335000EE6BEF6BF06BF16BB00EF26F800EF36FF4
:10336000080EF46F820EF56F060EF66F2E0EF76FD5
:10337000F86B800EF96FFA6B000E016E000E026E94
:10338000000E036EADEC1CF0000E016E000E026E1E
:10339000000E036E9CEC1CF0000E016E000E026E1F
:1033A000000E036E8BEC1CF00001E16B000EE06F71
:1033B000120003500410D8B4E0EF19F0E2EF19F056
:1033C00006EF1AF0010E056EEAEF19F0D8900336F9
:1033D0000436052A04AEEFEF19F0F1EF19F0E6EF2D
:1033E00019F00350015C04500258D8A0FAEF19F00C
:1033F000FCEF19F000EF1AF00350015E0450025A7E
:10340000D89004320332052EF1EF19F001C001F01B
:1034100002C002F012003D01D46BD66BD86BB00E27
:10342000DA6F800EDB6FDC6B820EDD6F060EDE6FF7
:103430002E0EDF6FE06B800EE16FE26B000E016E0F
:10344000000E026E000E036E7AEC1CF0000E016E90
:10345000000E026E000E036E69EC1CF0000E016E91
:10346000000E026E000E036E58EC1CF00001E36BC0
:10347000000EE26F1200040E3D01736F800E746F38
:10348000080E756F030E7B6F796B7A6B766B6C6BC6
:10349000510E3A015A6F510E5B6F3D01738F050E4D
:1034A000E82EFED700000000000000000000000031
:1034B00000003D0179917995000E0001CB6F000E5F
:1034C000CC6F000ECD6F12000A6A09EC1CF00009E7
:1034D000D8A46DEF1AF06FEF1AF088EF1AF0010E12
:1034E0004C6E02C04DF003C04EF0010E556E04C08C
:1034F0004FF005C050F006C051F007C052F008C0B0
:1035000053F009C054F0566A6DEC1BF0010E0A6EC0
:103510000A501200D29A3901A191D280000E016E98
:10352000000E026E000E036E44EC1DF03901A591F1
:10353000D282000E016E000E026E000E036E3DEC94
:103540001DF03901A79BD284000E016E000E026EA1
:10355000000E036E36EC1DF01200076A09EC1CF039
:103560000009D8A4B6EF1AF0B8EF1AF0CEEF1AF0AF
:10357000010E4C6E02C04DF003C04EF0556A04C0FF
:103580004FF005C050F006C051F0526A546A000E68
:10359000536E566A6DEC1BF0010E076E0750120059
:1035A0002FC031F0DCEF1AF02EC025F0310E266E60
:1035B00030C027F0C9EC11F06000C7F0F6FF200E14
:1035C000F76E000EF86E0800F5500009D8A4EBEF76
:1035D0001AF0EDEF1AF0D4EF1AF02F6A000E2E6EEB
:1035E0001200C386C388C38AC38CC38E3A01509726
:1035F0005099509B509D509F51875189518B518DAF
:10360000518F56875689568B568D568F559755999B
:10361000559B559D559F576B3901A09F908FD28E1A
:10362000120025EF1BF032EC1CF00009D8B41BEFA0
:103630001BF01DEF1BF013EF1BF00250D96EDA6A7E
:10364000DF50016E56EC1DF0022A0250D96EDA6A84
:10365000DF50D8A42EEF1BF030EF1BF013EF1BF060
:103660001200106A000E0F6E3FEF1BF00EC003F049
:10367000046A0DC005F0F8EC17F00F4A102A0F503D
:103680000B24D96E10500C20DA6EDF500E6E0E50E7
:10369000D8A44DEF1BF04FEF1BF036EF1BF01200DC
:1036A000096E09C00AF008C00BF0036A680E026ECA
:1036B0000A0E046E066A020E056EADEC1AF00009E1
:1036C000D8A465EF1BF067EF1BF06AEF1BF0000E4C
:1036D0006CEF1BF0E7EC18F0120050505110D8B40A
:1036E00074EF1BF076EF1BF083EF1BF0600043F1EB
:1036F0006CFD5550D8B47FEF1BF081EF1BF083EFCA
:103700001BF03D01738D4D504D243D016E6F738B49
:1037100012003E01C18FC151FC0B0109C16FC1AD47
:1037200094EF1BF096EF1BF08FEF1BF0F8893F0E24
:10373000FF6FF00EFD170F0EFD173E0EF16FF851E3
:10374000F30B0409F86FF88F120000EE00F1200E61
:10375000EE6AE806FDE100EEADF03E0EEE6AE80628
:10376000FDE100EE4CF0130EEE6AE806FDE1080EF6
:10377000D56E000ED66E000ED76E000158EF10F019
:1037800008BEC5EF1BF0C7EF1BF0CDEF1BF007C065
:1037900007F008C008F0D9EF1BF007C009F008C017
:1037A0000AF0091E0A1E094A0A2A09C007F00AC0BF
:1037B00008F01200340E406E32C041F0446A000E30
:1037C000436E4B6A000E4A6E410E2E6E33C02FF0D0
:1037D000400E306ED0EC1AF032504324D96EDA6AC3
:1037E000DF6A12003D01796B769B769D7699786B46
:1037F0007885739F738F050EE82EFED700000000BA
:10380000000000000000000000003D017991799562
:103810001200010E016E4C50D8A411EF1CF013EFF2
:103820001CF01CEF1CF03D0177AF19EF1CF01BEFF3
:103830001CF01CEF1CF0016A01501200016A3D01EE
:10384000DFAB25EF1CF027EF1CF030EF1CF0DAABFC
:103850002CEF1CF02EEF1CF030EF1CF0010E016E6F
:1038600001501200016A3D01F7AB39EF1CF03BEF4C
:103870001CF044EF1CF0F2AB40EF1CF042EF1CF0E8
:1038800044EF1CF0010E016E015012005350541011
:10389000D8B44DEF1CF04FEF1CF052EF1CF060005D
:1038A0004FF16CFDD8804D343D016E6F738B12006B
:1038B000015002100310D8B460EF1CF062EF1CF04E
:1038C00068EF1CF001C0B9F002C0BAF003C0BBF051
:1038D0001200015002100310D8B471EF1CF073EF06
:1038E0001CF079EF1CF001C0BCF002C0BDF003C0B9
:1038F000BEF01200015002100310D8B482EF1CF089
:1039000084EF1CF08AEF1CF001C0BFF002C0C0F0D1
:1039100003C0C1F01200015002100310D8B493EF9D
:103920001CF095EF1CF09BEF1CF001C0B0F002C042
:10393000B1F003C0B2F01200015002100310D8B46D
:10394000A4EF1CF0A6EF1CF0ACEF1CF001C0B3F02C
:1039500002C0B4F003C0B5F0120001500210031011
:10396000D8B4B5EF1CF0B7EF1CF0BDEF1CF001C0F0
:10397000B6F002C0B7F003C0B8F01200026E1EEC41
:103980001CF00009D8B4C7EF1CF0C9EF1CF0BFEF62
:103990001CF0025051EC1DF01200B888B9501F0BFA
:1039A0004009B96E0F0EB912FE0EB76EB66A390134
:1039B000938FA39FB88E12004C6A000E4E6E4D6816
:1039C0004F6A526A3D01796B769B769D7699786B4A
:1039D000788512002DEC1DF04EEC18F03BEC1AF03F
:1039E000A3EC19F00BEC1AF08AEC1AF01200330E6B
:1039F000396E000E2E6E32C02FF0390E306ED0ECC4
:103A00001AF012003D01F7A308EF1DF00BEF1DF0B7
:103A1000010E0CEF1DF0000E1200026E02C001F04C
:103A20000F0E011602380F0B0A0DF350012412007D
:103A3000C48A3A01609B618B679B668B659B3901E9
:103A4000A09F908F12003D01736B746B756B7B6B45
:103A5000796B7A6B766B6C6B1200600E3901D96FE3
:103A6000DB6BDD6B080EDF6FDE6B120001C0C2F096
:103A700002C0C3F003C0C4F0120001C0C5F002C010
:103A8000C6F003C0C7F0120001C0C8F002C0C9F000
:103A900003C0CAF01200000E086E0F0E50EC1BF0AF
:103AA0001200016E600007F0D2FD1200600007F006
:103AB000EAFD12003D01E851120029EC19F0120054
:020000040030CA
:0A0000008FDF37EF9FFFFFFFFFFFC8
:00000001FF
